:100000001AC034C033C032C031C03CC02FC02EC073
:100010002DC02CC02BC02AC059C028C027C0AED5C7
:1000200080A8FCD300408D14A1C8DA1281CFD9F189
:10003000DB40A4A6AF0011241FBECFE5D2E0DEBF97
:10004000CDBF10E0A0E6B0E0E0E8FAE002C0059025
:100050000D92A837B107D9F720E0A8E7B0E001C0BA
:100060001D92AB38B207E1F78AD008C5C9CFB7D027
:1000700090937B0080937A00B5D090937900809321
:10008000780008951F920F920FB60F9211248F934C
:100090009F93EF93FF9382EC82BFE0917A00F091FF
:1000A0007B00808181608083E0917800F09179000D
:1000B00080819181019691838083FF91EF919F913F
:1000C0008F910F900FBE0F901F9018951F920F9257
:1000D0000FB60F9211248F93A89581B5806581BDCD
:1000E0008F910F900FBE0F901F901895F8948091EC
:1000F000800080FF22C0809180008E7F80938000EE
:1001000080917E0090917F00937090937F00809308
:100110007E0080917E0090917F00892B71F4809108
:100120007C0090917D00019690937D0080937C00EF
:1001300080918000826080938000789408958091FF
:10014000800081FF1BC0809180008D7F80938000A4
:10015000A6D180E690E090938800809387008091FC
:100160007C0090917D009F938F9384E790E09F9314
:100170008F93ACD10F900F900F900F900895F8943B
:1001800084B7806284BF88B1806888B980B589608F
:1001900080BD84B7877F84BF81B5806581BD81B50F
:1001A000896281BD87B3826087BB83B7846083BF68
:1001B00089B7826089BF82EC82BF88B3856088BBC3
:1001C00087B3856087BB8FEF8FB98AE28DB980EEE8
:1001D0008EB94DDFD1D0789489DFB1DFFDCF80E8D3
:1001E00090E008958EE790E00895CF93C82F80E0C7
:1001F0003CD1E0918100F09182009081892F817043
:1002000090FF0BC08C2F31D1E0918100F0918200E2
:100210009081892F817090FD81E0CF910895CF93D7
:10022000DF9380E593EC45D1E0918100F09182006D
:1002300080818D7F8083D7D080E390E03AD18CE3BA
:1002400024D1E0918100F09182008081D82FD1707B
:1002500080FD19C0808184608083DBD019C0EC2FC1
:10026000F0E0E25EFF4F8491C0DFD82F811109C01A
:10027000E0918100F0918200808184608083C9D008
:1002800007C0CF5F01C0C0E0C73148F3C2D0D1E0A2
:100290008D2FDF91CF910895CF93C82F80E4E5D0C3
:1002A000E0918100F09182009081892F817090FF10
:1002B0000BC08C2FDAD0E0918100F0918200908108
:1002C000892F817090FD81E0CF9108958A3029F4C3
:1002D000909183009160909383008D3029F48091F8
:1002E000830082608093830080E090E00895EF9225
:1002F000FF920F931F93CF93DF938C01E0918100C6
:10030000F091820080818D7F80836DD080E390E0CA
:10031000D0D08CE3BAD0E0918100F091820080814E
:10032000D82FD17080FD1BC080818460808371D004
:100330001BC078018FEFE81AF80AF8018081ACDF62
:10034000D82F811109C0E0918100F0918200808155
:10035000846080835ED008C0CF5F870101C0C0E0A9
:10036000C63038F356D0D1E08D2FDF91CF911F9159
:100370000F91FF90EF900895CF93DF9300D000D0BE
:1003800000D0CDB7DEB788D09093820080938100F3
:1003900046DF86E0EEE6F0E0DE01119601900D9278
:1003A0008A95E1F7CE010196A2DF26960FB6F89462
:1003B000DEBF0FBECDBFDF91CF910895CF93CDB1FA
:1003C000C1600AC084E090E074D0CDB9B29BFECF8A
:1003D00084E090E06ED0CDB9769BF4CF86E090E0DB
:1003E00068D0CF91089588B3846088BB84E090E0A2
:1003F00060D088B38E7F88BB84E090E05AD088B309
:100400008B7F88BB88B3816088BB8EB180688EB9D2
:10041000089588B38E7F88BB88B3846088BBB29B05
:10042000FECF84E090E045D088B3816088BB84E053
:1004300090E03FD08EB180628EB9089588B38B7FF3
:1004400088BB8EB1817F80648EB9B8DF089587B391
:100450008E7F87BB8EB18E648EB91FB8AFDF87B336
:10046000816087BB8FB181700895909184009E7FD9
:10047000909384008FB9E2DFEADF811105C080919B
:1004800084008160809384000895880F9091840097
:1004900091FD8160EADF089584E890E00895B19BC2
:1004A00004C088B38D7F88BB089588B3826088BB01
:1004B000089509C0000000000000000000000000D6
:1004C0000000000001970097A9F70895A0E0B0E0B0
:1004D000EBE6F2E0ACC2AE014B5F5F4FFA01619117
:1004E0007191AF01809187009091880002D0E2E085
:1004F000BAC2ABE0B0E0EEE7F2E089C26C017B018A
:100500008A01FC0117821682838181FFC0C1CE015E
:1005100001963C01F6019381F70193FD859193FFCC
:1005200081917F01882309F4AEC1853239F493FDAE
:10053000859193FF81917F01853221F4B60190E08E
:10054000C1D1E8CF912C212C312CFFE1F315E0F043
:100550008B3279F038F4803279F08332A9F4232D8C
:10056000206110C08D3259F0803371F4232D216049
:1005700009C0832D8260382EE32DE46022C0F32D64
:10058000F86025C0322E27C037FC2DC020ED280F83
:100590002A3088F436FE06C0892D6AE02FD2922ECA
:1005A000980E19C0822D6AE029D2222E280E832DA2
:1005B0008062382E10C08E3231F436FC64C1E32DD7
:1005C000E0643E2E08C08C3621F4F32DF0683F2EF7
:1005D00002C0883641F4F70193FD859193FF819124
:1005E0007F018111B2CF982F9F7D9554933028F4CD
:1005F0000C5F1F4F2FE329830DC0833631F0833703
:1006000071F0833509F055C020C0F80180818983DD
:100610000E5F1F4F88248394912C530112C0280130
:10062000F2E04F0E511CF801A080B18036FE03C0ED
:10063000692D70E002C06FEF7FEFC50138D14C012A
:100640008201F32DFF773F2E15C0280122E0420ED4
:10065000511CF801A080B18036FE03C0692D70E006
:1006600002C06FEF7FEFC50117D14C01F32DF06889
:100670003F2E820133FC19C0822D90E08816990626
:10068000A0F4B60180E290E01DD12A94F5CFF501E7
:1006900037FC859137FE81915F01B60190E012D160
:1006A00021102A9421E0821A91088114910479F78B
:1006B000E1C0843611F0893639F5F80137FE07C0FC
:1006C00060817181828193810C5F1F4F08C06081BE
:1006D0007181072E000C880B990B0E5F1F4FF32DB5
:1006E000FF763F2E97FF09C0909580957095619594
:1006F0007F4F8F4F9F4FF0683F2E2AE030E0A301DD
:100700001DD1882E861844C0853731F4232D2F7EC5
:10071000B22E2AE030E025C0932D997FB92E8F3676
:10072000C1F018F4883579F0AEC0803719F08837F9
:1007300021F0A9C0E92FE061BE2EB4FE0DC0FB2D53
:10074000F460BF2E09C034FE0AC0292F2660B22EE5
:1007500006C028E030E005C020E130E002C020E122
:1007600032E0F801B7FE07C0608171818281938118
:100770000C5F1F4F06C06081718180E090E00E5FCA
:100780001F4FA301DBD0882E8618FB2DFF773F2E4D
:1007900036FE0DC0232D2E7FA22E891458F434FE70
:1007A0000BC032FC09C0832D8E7EA82E05C0B82C4C
:1007B000A32C03C0B82C01C0B92CA4FE0FC0FE01AD
:1007C000E80DF11D8081803321F49A2D997EA92EA8
:1007D00009C0A2FE06C0B394B39404C08A2D8678E3
:1007E00009F0B394A3FC10C0A0FE06C0B21480F4BC
:1007F000280C922C9B180DC0B21458F4B60180E25C
:1008000090E060D0B394F8CFB21418F42B1802C063
:10081000982C212CA4FE0FC0B60180E390E052D0AA
:10082000A2FE16C0A1FC03C088E790E002C088E5E4
:1008300090E0B6010CC08A2D867851F0A1FE02C06E
:100840008BE201C080E2A7FC8DE2B60190E03AD0D5
:10085000891430F4B60180E390E034D09A94F8CF54
:100860008A94F301E80DF11D8081B60190E02AD051
:100870008110F6CF222009F44DCEB60180E290E03F
:1008800021D02A94F7CFF6018681978102C08FEF9D
:100890009FEF2B96E2E1D7C0FC01059061507040BC
:1008A0000110D8F7809590958E0F9F1F0895FC0139
:1008B0006150704001900110D8F7809590958E0F8F
:1008C0009F1F08950F931F93CF93DF93FB01238105
:1008D00021FD03C08FEF9FEF2CC022FF16C0468181
:1008E0005781248135814217530744F4A081B18197
:1008F0009D012F5F3F4F318320838C932681378169
:100900002F5F3F4F3783268314C08B01EC01FB011F
:100910000084F185E02D0995892BE1F6D801169622
:100920008D919C911797019617969C938E9316978D
:10093000CE01DF91CF911F910F910895FA01AA275F
:10094000283061F1203191F1E8946F936E7F6E5FF2
:100950007F4F8F4F9F4FAF4FB1E040D0B4E03ED0BC
:10096000670F781F891F9A1FA11D680F791F8A1FA3
:10097000911DA11D6A0F711D811D911DA11D22D008
:1009800009F468943F91062E000C3019000C000CFD
:100990003019305D3193CEF6CF010895462F477060
:1009A000405D4193B3E00FD0C9F7F6CF462F4F70AB
:1009B000405D4A3318F0495D31FD4052419302D009
:1009C000A9F7EACFB4E0A6959795879577956795AF
:1009D000BA95C9F700976105710508959B01AC01AF
:1009E0000A2E06945795479537952795BA95C9F7D6
:1009F000620F731F841F951FA01D0895002480FDA2
:100A0000060E660F11F08695D1F7802D08952F926E
:100A10003F924F925F926F927F928F929F92AF928E
:100A2000BF92CF92DF92EF92FF920F931F93CF93DB
:100A3000DF93CDB7DEB7CA1BDB0B0FB6F894DEBF72
:100A40000FBECDBF09942A88398848885F846E8498
:100A50007D848C849B84AA84B984C884DF80EE80E2
:100A6000FD800C811B81AA81B981CE0FD11D0FB6EB
:100A7000F894DEBF0FBECDBFED010895F894FFCF0F
:100A800000000002000000006601000000003E417E
:080A90004141220025640A0027
:00000001FF
