:100000001AC034C033C032C031C03CC02FC02EC073
:100010002DC02CC02BC02AC059C028C027C0041036
:1000200064002800680628002800680628000303EA
:100030000302280C018011241FBECFE5D2E0DEBFF1
:10004000CDBF10E0A0E6B0E0E8E1F1E102C005902C
:100050000D92A838B107D9F720E0A8E8B0E001C0B8
:100060001D92A23CB207E1F7B7D054C8C9CFA6D0C1
:1000700090938B0080938A00A4D090938900809302
:10008000880008951F920F920FB60F9211248F933C
:100090009F93EF93FF9382EC82BFE0918A00F091EF
:1000A0008B00808181608083E0918800F0918900DD
:1000B00080819181019691838083FF91EF919F913F
:1000C0008F910F900FBE0F901F9018951F920F9257
:1000D0000FB60F9211248F93A89581B5806581BDCD
:1000E0008F910F900FBE0F901F901895F8948091EC
:1000F000900080FF23C0809190008E7F80939000BD
:1001000080918E0090918F00937090938F008093D8
:100110008E0080918E0090918F00892B71F48091D8
:100120008C0090918D00019690938D0080938C00AF
:1001300080919000826080939000F7D37894089526
:100140008091900081FF07C0809190008D7F809307
:1001500090004CD49BD40895C9DFF2DF0895EF924C
:10016000FF920F931F93CF93DF937B01FB012081BD
:1001700001E010E002C0000F111F4A95E2F7202BAA
:100180002083C0918E00D0918F008C0F9D1FEC01B9
:10019000D37001C0E1DF20918E0030918F00C21733
:1001A000D307C1F7F7018081009508230083DF9111
:1001B000CF911F910F91FF90EF90089580E990E00B
:1001C00008958EE890E0089580918C0090918D00C4
:1001D000089580E690E00895F89484B7806284BF23
:1001E00088B1806888B980B5896080BD84B7877F11
:1001F00084BF81B5806581BD81B5896281BD87B3CA
:10020000826087BB83B7846083BF89B7826089BF00
:1002100082EC82BF88B3856088BB87B3856087BB6B
:100220008FEF8FB98AE28DB980EF8EB920DFF8D0D9
:1002300035D37894CEDF9093BF008093BE008CDFDF
:10024000FECF0F931F93CF93DF93C82F8B01E091C5
:100250009100F091920080818D7F8083DC2FD07F90
:100260008D2F8C60D4D18D2F8860D1D1D0E0C295F4
:10027000D295D07FDC27C07FDC278C2F8C60C7D144
:100280008C2F8860C4D1C80130D4DF91CF911F91E9
:100290000F910895CF93DF93C82FE0919100F091D3
:1002A000920080818D7F8083DC2FD07F8D2F8D60A9
:1002B000AED18D2F8960ABD1D0E0C295D295D07FE1
:1002C000DC27C07FDC278C2F8D60A1D18C2F89602B
:1002D0009ED188E290E009D4DF91CF910895FF92FA
:1002E0000F931F93CF93DF9388E99AE3FED3E091B6
:1002F0009100F091920080818D7F808344D187E2CC
:1003000096D1F12C2EC0CF2DD0E08E01025D1F4F73
:10031000F8018491807F8C607AD1F8018491807F8C
:10032000886075D1F801849190E082959295907FD4
:100330009827807F98278C606AD1F801849190E09B
:1003400082959295907F9827807F982788605FD1CB
:10035000FE01EE0FFF1FE25EFF4F85919491C5D322
:10036000F394F7E0FF1508F0CECF23D1DF91CF91C2
:100370001F910F91FF900895CF93C82FE0919100A6
:10038000F091920080818D7F80838091940080FD28
:1003900004C08091940081FF18C0809194008E7FEA
:1003A00080939400809194008D7F80939400EBD093
:1003B00087E23DD168E676E081E043DF68E270E005
:1003C00080E83FDFF6D010929300CA30B9F0CD300C
:1003D000A9F0D9D087E22BD180919300803130F001
:1003E00068E270E080EC2DDF109293008C2F52DFDA
:1003F000E0D0809193008F5F80939300CA3029F4FE
:1004000080919400816080939400CD3029F4809194
:10041000940082608093940080E090E0CF910895F2
:100420000DD1909392008093910059DF80E0089560
:10043000DF92EF92FF920F931F93CF93DF937B0195
:1004400040D2D82E811119C08EEB46D1C0E0D0E049
:100450000DC087010C0F111DC7FD1A95B6D1F8010B
:100460008083682F8D2FC5D1D82FCF5FC9308CF3F3
:10047000DD2329F0DD24D39402C0DD24D3948D2D17
:10048000DF91CF911F910F91FF90EF90DF90089532
:100490001F93CF93DF93EC0114D2811123C0CE01BF
:1004A0002DD2182FCE010DD2C82F81111DC084E48A
:1004B00013D1112399F088B3806188BB87B3806121
:1004C00087BB40E065E970E08EEE92E048DE87B3DE
:1004D0008F7E87BB88B38F7E88BB07C0E8D0882318
:1004E000E9F303C0C1E001C0C1E08C2FDF91CF91DF
:1004F0001F91089585E990E008959C01FB0111C0CA
:10050000E199FECFF8943FBB2EBB81918DBB9CB38C
:1005100094609CBB9CB392609CBB78942F5F3F4FD0
:10052000AB01BA0161507109452B51F780E0089584
:100530009C01FB010CC0E199FECF3FBB2EBB9CB3DD
:1005400091609CBB8DB381932F5F3F4FAB01BA018C
:1005500061507109452B79F780E00895CF93CDB1B3
:10056000C1600AC081E090E0C0D2CDB9B29BFECF9D
:1005700081E090E0BAD2CDB9769BF4CF81E090E0F3
:10058000B4D2CF91089588B3846088BB81E090E0B5
:10059000ACD288B38E7F88BB81E090E0A6D288B3CE
:1005A0008B7F88BB88B3816088BB8EB180688EB931
:1005B000089580E88FB988B38E7F88BB88B3846044
:1005C00088BBB29BFECF81E090E08FD288B3816080
:1005D00088BB81E090E089D28EB1806A8EB908959F
:1005E00088B38B7F88BB8EB1817F80648EB9B6DF84
:1005F000089587B38E7F87BB8EB18E648EB91FB886
:10060000ADDF87B3816087BB8FB181700895909112
:1006100096009E7F909396008FB9E2DFEADF81110A
:1006200005C0809196008160809396000895880FA0
:100630009091960091FD8160EADF089586E990E04F
:10064000089597B3906197BB882351F086E090E0BE
:100650004CD287B38F7E87BB80E490E046D208956A
:100660008CE390E042D287B38F7E87BB8AE090E034
:100670003CD20895CF9387B3806187BB80EE91E031
:1006800034D287B38F7E87BB86E490E02ED286B3C8
:10069000C82FC07184FD07C087B38F7E87BB8AE9EE
:1006A00091E023D201C0C1E08C2FCF910895CF9368
:1006B00087B3806187BB86E090E017D287B38F7ED7
:1006C00087BB89E090E011D2C6B3C07187E390E0A8
:1006D0000CD28C2FCF910895CF93DF93D82FC0E009
:1006E0000BC08D2F90E00C2E02C0959587950A9433
:1006F000E2F78170A6DFCF5FC83098F3DF91CF912A
:100700000895CF92DF92EF92FF920F931F93CF93B2
:10071000DF9390919700992309F445C0C82FAADF71
:10072000D82E811143C0E090A0008C2FD5DFD1E0FE
:10073000F12CC12CC0E017E031C0B9DF082FB7DFC2
:1007400001110EC0811113C080919700D81720F4B9
:10075000E0FE0AC0C0680BC0D81308C0C06807C05C
:10076000811127C0C06803C0CD2E01C0CD2E8C2FB3
:10077000807867DF11110EC0EF2DF0E0E056FF4FDB
:10078000C083F394EF2DF0E0E056FF4FE080C0E02F
:1007900018E002C0E694C6951150DF5FD13468F2CC
:1007A000C092970008C0DD24D39405C0DD24D39403
:1007B00002C0DD24D3948D2DDF91CF911F910F9135
:1007C000FF90EF90DF90CF900895CF93DF93D0E02C
:1007D00080E00AC0C82FC6956ADF882311F080E840
:1007E00001C080E08C2BDF5FD830A0F3DF91CF9188
:1007F000089590E011C0262F30E0092E02C03595F3
:1008000027950A94E2F7282720FF04C086952CE854
:10081000822701C086959F5F983068F308950F93F3
:100820001F93CF938C0181E4809397002FC0EC2F0E
:10083000F0E0E056FF4F6081DCDFCF5F02C0C0E038
:1008400080E0C830A0F3811121C048E050E068E9A1
:1008500070E0C8016DDE48E050E068E970E080EAD1
:1008600090E050D1882331F048E050E060EA70E039
:10087000C80143DE085F1F4F8091A8009091A80037
:100880009F709F5F807F892B8093A80080EF39DF66
:100890008823A9F2CF911F910F910895CF9387B329
:1008A0008F7E87BB88B38F7E88BBE4DEC82F811123
:1008B00004C080E490E0B3DF01C0C1E08C2FCF9191
:1008C00008950F931F93CF93DF938C01D3DED82F1E
:1008D00081110DC085E500DFC0E006C0F801EC0F16
:1008E000F11D8081F9DECF5FC830C0F301C0D1E0D7
:1008F0008D2FDF91CF911F910F910895E2DF84EB4F
:10090000EBDED5DE91E0811190E0892F089588EA31
:1009100090E00895B19B04C088B38D7F88BB03C06D
:1009200088B3826088BB80E0089580916E009091CA
:100930006F00019790936F0080936E00892B51F4A4
:10094000E9DF811109C022E330E030936F0020938A
:100950006E00089580E0089581E0089535DC9F934E
:100960008F9384E790E09F938F93FCD00F900F902C
:100970000F900F9080E00895B5D0FC012081318167
:10098000C9018F709927AC01440F551F480F591F9B
:10099000BA01660F771F62957295707F7627607F28
:1009A0007627460F571F840F951F929582958F705B
:1009B00089279F708927329522952F7023273F70B2
:1009C000232799279F938F93822F220F990B9F9311
:1009D0008F938CE790E09F938F93C4D00F900F90EC
:1009E0000F900F900F900F9080E00895809170000D
:1009F0009091710001979093710080937000892B02
:100A0000A9F4E2DB65E070E099D0892B21F0A6DF44
:100A1000882321F00DC0B0DF81110CC081E090E08F
:100A2000909371008093700080E0089580E00895B5
:100A300081E0089581E00895E091BA00F091BB0053
:100A400090818917E8F490E0089648E050E062EB66
:100A500070E0880F991F880F991F880F991F68DD14
:100A6000811110C082EB90E013DD81110DC069EAA5
:100A700070E082EB90E0DCDC882339F081E00895BF
:100A800081E0089581E0089581E00895CF9332DDFB
:100A9000FC018081C82FC17080FD20C08091720050
:100AA0009091730001979093730080937200892B4B
:100AB000B1F42DDF9093BB008093BA0080E0BCDFDF
:100AC000882329F0E9EAF0E0108288E0818384E05D
:100AD00090E0909373008093720001C0C1E08C2F6E
:100AE000CF91089589EA90E0089509C000000000C0
:100AF00000000000000000000000000001970097C7
:100B0000A9F70895CF93DF93EC01DA0120E030E0FC
:100B10000CC0FE01E20FF31F5081FB01E20FF31F37
:100B20009081591307C02F5F3F4F2A173B0788F367
:100B300080E001C081E0DF91CF910895AA1BBB1B2B
:100B400051E107C0AA1FBB1FA617B70710F0A61BCD
:100B5000B70B881F991F5A95A9F780959095BC01EE
:100B6000CD010895A0E0B0E0E7EBF5E0ACC2AE0146
:100B70004B5F5F4FFA0161917191AF018091BE00AF
:100B80009091BF0002D0E2E0BAC2ABE0B0E0EAEC84
:100B9000F5E089C26C017B018A01FC011782168293
:100BA000838181FFC0C1CE0101963C01F601938192
:100BB000F70193FD859193FF81917F01882309F4CB
:100BC000AEC1853239F493FD859193FF81917F0108
:100BD000853221F4B60190E0C1D1E8CF912C212CCF
:100BE000312CFFE1F315E0F08B3279F038F48032EC
:100BF00079F08332A9F4232D206110C08D3259F091
:100C0000803371F4232D216009C0832D8260382E3A
:100C1000E32DE46022C0F32DF86025C0322E27C0FA
:100C200037FC2DC020ED280F2A3088F436FE06C090
:100C3000892D6AE02FD2922E980E19C0822D6AE07B
:100C400029D2222E280E832D8062382E10C08E329B
:100C500031F436FC64C1E32DE0643E2E08C08C36CE
:100C600021F4F32DF0683F2E02C0883641F4F701DD
:100C700093FD859193FF81917F018111B2CF982FD0
:100C80009F7D9554933028F40C5F1F4F2FE32983E9
:100C90000DC0833631F0833771F0833509F055C0CC
:100CA00020C0F801808189830E5F1F4F88248394C0
:100CB000912C530112C02801F2E04F0E511CF80193
:100CC000A080B18036FE03C0692D70E002C06FEFD6
:100CD0007FEFC50138D14C018201F32DFF773F2E04
:100CE00015C0280122E0420E511CF801A080B180FD
:100CF00036FE03C0692D70E002C06FEF7FEFC501C3
:100D000017D14C01F32DF0683F2E820133FC19C03E
:100D1000822D90E088169906A0F4B60180E290E05A
:100D20001DD12A94F5CFF50137FC859137FE8191CD
:100D30005F01B60190E012D121102A9421E0821ABD
:100D400091088114910479F7E1C0843611F0893655
:100D500039F5F80137FE07C0608171818281938186
:100D60000C5F1F4F08C060817181072E000C880B3B
:100D7000990B0E5F1F4FF32DFF763F2E97FF09C093
:100D800090958095709561957F4F8F4F9F4FF0683C
:100D90003F2E2AE030E0A3011DD1882E861844C0E2
:100DA000853731F4232D2F7EB22E2AE030E025C086
:100DB000932D997FB92E8F36C1F018F4883579F0CC
:100DC000AEC0803719F0883721F0A9C0E92FE06163
:100DD000BE2EB4FE0DC0FB2DF460BF2E09C034FE44
:100DE0000AC0292F2660B22E06C028E030E005C0D8
:100DF00020E130E002C020E132E0F801B7FE07C098
:100E000060817181828193810C5F1F4F06C0608178
:100E1000718180E090E00E5F1F4FA301DBD0882E30
:100E20008618FB2DFF773F2E36FE0DC0232D2E7F1B
:100E3000A22E891458F434FE0BC032FC09C0832D55
:100E40008E7EA82E05C0B82CA32C03C0B82C01C0E0
:100E5000B92CA4FE0FC0FE01E80DF11D8081803386
:100E600021F49A2D997EA92E09C0A2FE06C0B39442
:100E7000B39404C08A2D867809F0B394A3FC10C003
:100E8000A0FE06C0B21480F4280C922C9B180DC052
:100E9000B21458F4B60180E290E060D0B394F8CF79
:100EA000B21418F42B1802C0982C212CA4FE0FC0E9
:100EB000B60180E390E052D0A2FE16C0A1FC03C0B0
:100EC00088E790E002C088E590E0B6010CC08A2D6A
:100ED000867851F0A1FE02C08BE201C080E2A7FC3F
:100EE0008DE2B60190E03AD0891430F4B60180E387
:100EF00090E034D09A94F8CF8A94F301E80DF11D74
:100F00008081B60190E02AD08110F6CF222009F42A
:100F10004DCEB60180E290E021D02A94F7CFF601C1
:100F20008681978102C08FEF9FEF2B96E2E1D7C0B9
:100F3000FC010590615070400110D8F780959095A4
:100F40008E0F9F1F0895FC016150704001900110A9
:100F5000D8F7809590958E0F9F1F08950F931F933C
:100F6000CF93DF93FB01238121FD03C08FEF9FEF20
:100F70002CC022FF16C0468157812481358142173B
:100F8000530744F4A081B1819D012F5F3F4F31830E
:100F900020838C93268137812F5F3F4F37832683B1
:100FA00014C08B01EC01FB010084F185E02D099553
:100FB000892BE1F6D80116968D919C911797019691
:100FC00017969C938E931697CE01DF91CF911F9128
:100FD0000F910895FA01AA27283061F1203191F18B
:100FE000E8946F936E7F6E5F7F4F8F4F9F4FAF4F31
:100FF000B1E040D0B4E03ED0670F781F891F9A1F40
:10100000A11D680F791F8A1F911DA11D6A0F711DF7
:10101000811D911DA11D22D009F468943F91062ED7
:10102000000C3019000C000C3019305D3193CEF6F5
:10103000CF010895462F4770405D4193B3E00FD034
:10104000C9F7F6CF462F4F70405D4A3318F0495D1F
:1010500031FD4052419302D0A9F7EACFB4E0A69502
:101060009795879577956795BA95C9F70097610524
:10107000710508959B01AC010A2E0694579547957A
:1010800037952795BA95C9F7620F731F841F951F6F
:10109000A01D0895002480FD060E660F11F08695B0
:1010A000D1F7802D08952F923F924F925F926F92C9
:1010B0007F928F929F92AF92BF92CF92DF92EF92E8
:1010C000FF920F931F93CF93DF93CDB7DEB7CA1B69
:1010D000DB0B0FB6F894DEBF0FBECDBF09942A8894
:1010E000398848885F846E847D848C849B84AA843C
:1010F000B984C884DF80EE80FD800C811B81AA81C9
:10110000B981CE0FD11D0FB6F894DEBF0FBECDBF93
:08111000ED010895F894FFCFF2
:101118000000000200000000BC01000000003200D6
:10112800010004007365633A25750A00543A256482
:081138002E253032750A00007B
:00000001FF
