:100000001AC034C033C032C031C03CC02FC02EC073
:100010002DC02CC02BC02AC059C028C027C0041036
:1000200064002800680628002800680628000303EA
:100030000302280C018011241FBECFE5D2E0DEBFF1
:10004000CDBF10E0A0E6B0E0ECE4F0E102C0059026
:100050000D92AC38B107D9F720E0ACE8B0E001C0B0
:100060001D92A43BB207E1F793D0EEC7C9CF82D06F
:1000700090938F0080938E0080D090938D0080931A
:100080008C0008951F920F920FB60F9211248F9338
:100090009F93EF93FF9382EC82BFE0918E00F091EB
:1000A0008F00808181608083E0918C00F0918D00D1
:1000B00080819181019691838083FF91EF919F913F
:1000C0008F910F900FBE0F901F9018951F920F9257
:1000D0000FB60F9211248F93A89581B5806581BDCD
:1000E0008F910F900FBE0F901F901895F8948091EC
:1000F000940080FF22C0809194008E7F80939400B2
:1001000080919200909193009370909393008093CC
:1001100092008091920090919300892B71F48091CC
:10012000900090919100019690939100809390009F
:1001300080919400826080939400789408958091D7
:10014000940081FF16C0809194008D7F809394006D
:100150004CD280919000909191009F938F9380E773
:1001600090E09F938F9398D42AD40F900F900F9084
:100170000F90089584E990E0089582E990E0089551
:100180008091900090919100089580E690E008950C
:10019000F89484B7806284BF88B1806888B980B5DC
:1001A000896080BD84B7877F84BF81B5806581BD4C
:1001B00081B5896281BD87B3826087BB83B7846064
:1001C00083BF89B7826089BF82EC82BF88B38560B4
:1001D00088BB87B3856087BB8FEF8FB98AE28DB903
:1001E00080EF8EB944DFF9D037D37894CEDF909387
:1001F000B1008093B0007ADFA2DFFDCF0F931F9391
:10020000CF93DF93C82F8B01E0919500F09196007A
:1002100080818D7F8083DC2FD07F8D2F8C60CBD130
:100220008D2F8860C8D1D0E0C295D295D07FDC27D1
:10023000C07FDC278C2F8C60BED18C2F8860BBD117
:10024000C80101D4DF91CF911F910F910895CF93F1
:10025000DF93C82FE0919500F091960080818D7F0B
:100260008083DC2FD07F8D2F8D60A5D18D2F89606D
:10027000A2D1D0E0C295D295D07FDC27C07FDC2709
:100280008C2F8D6098D18C2F896095D188E290E079
:10029000DAD3DF91CF910895FF920F931F93CF93FD
:1002A000DF9388E99AE3CFD3E0919500F09196002F
:1002B00080818D7F80833BD187E28DD1F12C2EC050
:1002C000CF2DD0E08E01025D1F4FF8018491807F19
:1002D0008C6071D1F8018491807F88606CD1F801C5
:1002E000849190E082959295907F9827807F9827BF
:1002F0008C6061D1F801849190E082959295907F15
:100300009827807F9827886056D1FE01EE0FFF1F47
:10031000E25EFF4F8591949196D3F394F7E0FF1539
:1003200008F0CECF1AD1DF91CF911F910F91FF909E
:100330000895CF93C82FE0919500F09196008081A9
:100340008D7F80838091980080FD04C0809198000B
:1003500081FF18C0809198008E7F809398008091D3
:1003600098008D7F80939800E2D087E234D168E6D0
:1003700076E081E043DF68E270E080E83FDFEDD0C7
:1003800010929700CA30B9F0CD30A9F0D0D087E2F2
:1003900022D180919700803130F068E270E080ECEB
:1003A0002DDF109297008C2F52DFD7D080919700CD
:1003B0008F5F80939700CA3029F480919800816004
:1003C00080939800CD3029F48091980082608093CA
:1003D000980080E090E0CF91089504D1909396002A
:1003E0008093950059DF81E00895DF92EF92FF92AC
:1003F0000F931F93CF93DF937B0141D2D82E8111AE
:1004000019C08EEB47D1C0E0D0E00DC087010C0FC2
:10041000111DC7FD1A95B7D1F8018083682F8D2F64
:10042000C6D1D82FCF5FC9308CF3DD2329F0DD246E
:10043000D39402C0DD24D3948D2DDF91CF911F91F1
:100440000F91FF90EF90DF9008951F93CF93DF936C
:10045000EC0115D281111DC0CE012ED2182FCE0174
:100460000ED2C82F811117C084E414D1112369F072
:1004700088B3806188BB87B3806187BB87B38F7E79
:1004800087BB88B38F7E88BB07C0EFD08823E9F392
:1004900003C0C1E001C0C1E08C2FDF91CF911F915B
:1004A00008959C01FB0111C0E199FECFF8943FBB78
:1004B0002EBB81918DBB9CB394609CBB9CB392601E
:1004C0009CBB78942F5F3F4FAB01BA01615071091B
:1004D000452B51F780E008959C01FB010CC0E19988
:1004E000FECF3FBB2EBB9CB391609CBB8DB3819371
:1004F0002F5F3F4FAB01BA0161507109452B79F76E
:1005000080E00895CF93CDB1C1600AC081E090E052
:100510009AD2CDB9B29BFECF81E090E094D2CDB912
:10052000769BF4CF81E090E08ED2CF91089588B38E
:10053000846088BB81E090E086D288B38E7F88BBE0
:1005400081E090E080D288B38B7F88BB88B38160E4
:1005500088BB8EB180688EB9089580E88FB988B362
:100560008E7F88BB88B3846088BBB29BFECF81E05E
:1005700090E069D288B3816088BB81E090E063D26B
:100580008EB1806A8EB9089588B38B7F88BB8EB197
:10059000817F80648EB9B6DF089587B38E7F87BB75
:1005A0008EB18E648EB91FB8ADDF87B3816087BB13
:1005B0008FB181700895909199009E7F90939900DA
:1005C0008FB9E2DFEADF811105C080919900816077
:1005D000809399000895880F9091990091FD816012
:1005E000EADF089589E990E00895B19B04C088B3DB
:1005F0008D7F88BB089588B3826088BB089597B3C8
:10060000906197BB882351F086E090E01CD287B3BD
:100610008F7E87BB80E490E016D208958CE390E053
:1006200012D287B38F7E87BB8AE090E00CD2089508
:10063000CF9387B3806187BB80EE91E004D287B30C
:100640008F7E87BB86E490E0FED186B3C82FC07151
:1006500084FD07C087B38F7E87BB8AE991E0F3D121
:1006600001C0C1E08C2FCF910895CF9387B38061F3
:1006700087BB86E090E0E7D187B38F7E87BB89E0B8
:1006800090E0E1D1C6B3C07187E390E0DCD18C2F5C
:10069000CF910895CF93DF93D82FC0E00BC08D2F5B
:1006A00090E00C2E02C0959587950A94E2F7817030
:1006B000A6DFCF5FC83098F3DF91CF910895CF9236
:1006C000DF92EF92FF920F931F93CF93DF9390915E
:1006D0009A00992309F445C0C82FAADFD82E8111AA
:1006E00043C0E090A3008C2FD5DFD1E0F12CC12CCA
:1006F000C0E017E031C0B9DF082FB7DF01110EC02D
:10070000811113C080919A00D81720F4E0FE0AC02E
:10071000C0680BC0D81308C0C06807C0811127C0CB
:10072000C06803C0CD2E01C0CD2E8C2F807867DF2E
:1007300011110EC0EF2DF0E0ED55FF4FC083F39483
:10074000EF2DF0E0ED55FF4FE080C0E018E002C073
:10075000E694C6951150DF5FD13468F2C0929A00DA
:1007600008C0DD24D39405C0DD24D39402C0DD2469
:10077000D3948D2DDF91CF911F910F91FF90EF902A
:10078000DF90CF900895CF93DF93D0E080E00AC050
:10079000C82FC6956ADF882311F080E801C080E089
:1007A0008C2BDF5FD830A0F3DF91CF91089590E0DC
:1007B00011C0262F30E0092E02C0359527950A94E6
:1007C000E2F7282720FF04C086952CE8822701C085
:1007D00086959F5F983068F308950F931F93CF938A
:1007E0008C0181E480939A002FC0EC2FF0E0ED554E
:1007F000FF4F6081DCDFCF5F02C0C0E080E0C83027
:10080000A0F3811121C048E050E06BE970E0C8011D
:1008100063DE48E050E06BE970E083EA90E020D1CD
:10082000882331F048E050E063EA70E0C80139DE27
:10083000085F1F4F8091AB009091AB009F709F5F4E
:10084000807F892B8093AB0080EF39DF8823A9F26A
:10085000CF911F910F910895CF9387B38F7E87BB60
:1008600088B38F7E88BBE4DEC82F811104C080E48A
:1008700090E0B3DF01C0C1E08C2FCF9108950F93BA
:100880001F93CF93DF938C01D3DED82F81110DC03E
:1008900085E500DFC0E006C0F801EC0FF11D8081A6
:1008A000F9DECF5FC830C0F301C0D1E08D2FDF91FA
:1008B000CF911F910F910895E2DF84EBEBDED5DE3F
:1008C00091E0811190E0892F08958BEA90E00895DE
:1008D0001F93CF93DF93CDB7DEB761970FB6F89430
:1008E000DEBF0FBECDBFE091AC00F091AD009081B6
:1008F000891708F052C090E0089648E050E0BE0129
:100900006F5F7F4F880F991F880F991F880F991F5E
:10091000E3DD811144C0CE01019697DD811141C014
:10092000BE01675F7F4FCE0101965FDD182F8111F9
:100930003AC029853A85C9018F709927AC01440FC7
:10094000551F480F591FBA01660F771F62957295A0
:10095000707F7627607F7627460F571F840F951F7D
:10096000929582958F7089279F708927329522955D
:100970002F7023273F70232799279F938F933F93AF
:100980002F9388E790E09F938F9386D00F900F90DE
:100990000F900F900F900F9007C011E005C011E06D
:1009A00003C011E001C011E0812F61960FB6F894E9
:1009B000DEBF0FBECDBFDF91CF911F910895EF92A3
:1009C000FF920F931F93CF93DBDB7C0180916E002E
:1009D00090916F00E816F90679F577DF9093AD00F6
:1009E0008093AC00D2DB9093B1008093B000C0E064
:1009F00010C08C2F6DDF882359F01F930F9383E86D
:100A000090E09F938F9348D00F900F900F900F908E
:100A1000CF5F0C2F10E0E091AC00F091AD00808131
:100A20008F7090E00817190724F384E0E80EF11C9A
:100A3000F0926F00E0926E0080E0CF911F910F91D5
:100A4000FF90EF90089509C0000000000000000032
:100A5000000000000000000001970097A9F708952A
:100A6000CF93DF93EC01DA0120E030E00CC0FE010F
:100A7000E20FF31F5081FB01E20FF31F9081591326
:100A800007C02F5F3F4F2A173B0788F380E001C064
:100A900081E0DF91CF910895A0E0B0E0E1E5F5E0DD
:100AA000ACC2AE014B5F5F4FFA0161917191AF0132
:100AB0008091B0009091B10002D0E2E0BAC2ABE008
:100AC000B0E0E4E6F5E089C26C017B018A01FC013B
:100AD00017821682838181FFC0C1CE0101963C013D
:100AE000F6019381F70193FD859193FF81917F0139
:100AF000882309F4AEC1853239F493FD859193FFC3
:100B000081917F01853221F4B60190E0C1D1E8CF17
:100B1000912C212C312CFFE1F315E0F08B3279F090
:100B200038F4803279F08332A9F4232D206110C08B
:100B30008D3259F0803371F4232D216009C0832D4B
:100B40008260382EE32DE46022C0F32DF86025C0CA
:100B5000322E27C037FC2DC020ED280F2A3088F414
:100B600036FE06C0892D6AE02FD2922E980E19C04B
:100B7000822D6AE029D2222E280E832D8062382E03
:100B800010C08E3231F436FC64C1E32DE0643E2E99
:100B900008C08C3621F4F32DF0683F2E02C0883651
:100BA00041F4F70193FD859193FF81917F018111BC
:100BB000B2CF982F9F7D9554933028F40C5F1F4F30
:100BC0002FE329830DC0833631F0833771F08335ED
:100BD00009F055C020C0F801808189830E5F1F4F46
:100BE00088248394912C530112C02801F2E04F0E07
:100BF000511CF801A080B18036FE03C0692D70E061
:100C000002C06FEF7FEFC50138D14C018201F32D97
:100C1000FF773F2E15C0280122E0420E511CF8013B
:100C2000A080B18036FE03C0692D70E002C06FEF76
:100C30007FEFC50117D14C01F32DF0683F2E8201E3
:100C400033FC19C0822D90E088169906A0F4B601F5
:100C500080E290E01DD12A94F5CFF50137FC859113
:100C600037FE81915F01B60190E012D121102A94E4
:100C700021E0821A91088114910479F7E1C0843649
:100C800011F0893639F5F80137FE07C060817181AE
:100C9000828193810C5F1F4F08C060817181072E94
:100CA000000C880B990B0E5F1F4FF32DFF763F2E24
:100CB00097FF09C090958095709561957F4F8F4FF4
:100CC0009F4FF0683F2E2AE030E0A3011DD1882E0F
:100CD000861844C0853731F4232D2F7EB22E2AE0AA
:100CE00030E025C0932D997FB92E8F36C1F018F4CE
:100CF000883579F0AEC0803719F0883721F0A9C067
:100D0000E92FE061BE2EB4FE0DC0FB2DF460BF2EB6
:100D100009C034FE0AC0292F2660B22E06C028E082
:100D200030E005C020E130E002C020E132E0F8010F
:100D3000B7FE07C060817181828193810C5F1F4F74
:100D400006C06081718180E090E00E5F1F4FA301BB
:100D5000DBD0882E8618FB2DFF773F2E36FE0DC088
:100D6000232D2E7FA22E891458F434FE0BC032FCA2
:100D700009C0832D8E7EA82E05C0B82CA32C03C0DD
:100D8000B82C01C0B92CA4FE0FC0FE01E80DF11D66
:100D90008081803321F49A2D997EA92E09C0A2FE6C
:100DA00006C0B394B39404C08A2D867809F0B39436
:100DB000A3FC10C0A0FE06C0B21480F4280C922C34
:100DC0009B180DC0B21458F4B60180E290E060D0D8
:100DD000B394F8CFB21418F42B1802C0982C212C1D
:100DE000A4FE0FC0B60180E390E052D0A2FE16C070
:100DF000A1FC03C088E790E002C088E590E0B6015E
:100E00000CC08A2D867851F0A1FE02C08BE201C091
:100E100080E2A7FC8DE2B60190E03AD0891430F46C
:100E2000B60180E390E034D09A94F8CF8A94F3012D
:100E3000E80DF11D8081B60190E02AD08110F6CF37
:100E4000222009F44DCEB60180E290E021D02A9410
:100E5000F7CFF6018681978102C08FEF9FEF2B9627
:100E6000E2E1D7C0FC010590615070400110D8F755
:100E7000809590958E0F9F1F0895FC0161507040E2
:100E800001900110D8F7809590958E0F9F1F0895BF
:100E90000F931F93CF93DF93FB01238121FD03C0A9
:100EA0008FEF9FEF2CC022FF16C04681578124810F
:100EB00035814217530744F4A081B1819D012F5F12
:100EC0003F4F318320838C93268137812F5F3F4FA3
:100ED0003783268314C08B01EC01FB010084F1856C
:100EE000E02D0995892BE1F6D80116968D919C91FC
:100EF0001797019617969C938E931697CE01DF91C4
:100F0000CF911F910F910895FA01AA27283061F11E
:100F1000203191F1E8946F936E7F6E5F7F4F8F4F1A
:100F20009F4FAF4FB1E040D0B4E03ED0670F781F85
:100F3000891F9A1FA11D680F791F8A1F911DA11D6E
:100F40006A0F711D811D911DA11D22D009F46894A5
:100F50003F91062E000C3019000C000C3019305D4A
:100F60003193CEF6CF010895462F4770405D4193EF
:100F7000B3E00FD0C9F7F6CF462F4F70405D4A332C
:100F800018F0495D31FD4052419302D0A9F7EACFF4
:100F9000B4E0A6959795879577956795BA95C9F723
:100FA00000976105710508959B01AC010A2E069416
:100FB0005795479537952795BA95C9F7620F731FCF
:100FC000841F951FA01D0895002480FD060E660F46
:100FD00011F08695D1F7802D08952F923F924F9270
:100FE0005F926F927F928F929F92AF92BF92CF92B9
:100FF000DF92EF92FF920F931F93CF93DF93CDB7C2
:10100000DEB7CA1BDB0B0FB6F894DEBF0FBECDBF39
:1010100009942A88398848885F846E847D848C840A
:101020009B84AA84B984C884DF80EE80FD800C8113
:101030001B81AA81B981CE0FD11D0FB6F894DEBFF6
:0C1040000FBECDBFED010895F894FFCF66
:10104C0000000002000000009901000000000400F4
:10105C007365633A25750A00543A25642E2530329F
:0C106C00750A004661696C3A25750A009F
:00000001FF
