:100000001AC034C033C032C031C03CC02FC02EC073
:100010002DC02CC02BC02AC059C028C027C0041036
:1000200064002800680628002800680628000303EA
:100030000302280C018011241FBECFE5D2E0DEBFF1
:10004000CDBF10E0A0E6B0E0ECE8F0E102C0059022
:100050000D92A438B107D9F720E0A4E8B0E001C0C0
:100060001D92AC3AB207E1F7C9D00EC8C9CFB8D0DB
:100070009093870080938600B6D0909385008093FC
:10008000840008951F920F920FB60F9211248F9340
:100090009F93EF93FF9382EC82BFE0918600F091F3
:1000A0008700808181608083E0918400F0918500E9
:1000B00080819181019691838083FF91EF919F913F
:1000C0008F910F900FBE0F901F9018951F920F9257
:1000D0000FB60F9211248F93A89581B5806581BDCD
:1000E0008F910F900FBE0F901F901895F8948091EC
:1000F0008C0080FF22C080918C008E7F80938C00CA
:1001000080918A0090918B00937090938B008093E4
:100110008A0080918A0090918B00892B71F48091E4
:1001200088009091890001969093890080938800BF
:1001300080918C00826080938C00789408958091E7
:100140008C0081FF07C080918C008D7F80938C0094
:1001500083D26CD40895CADFF2DFFDCFCF93DF9353
:10016000EC01CE3E82E0D80799F580E593EC8BD484
:1001700080E593EC88D480E593EC85D480E593EC1E
:1001800082D480E593EC7FD480E593EC7CD480E549
:1001900093EC79D480E593EC76D480E593EC73D43A
:1001A00080E593EC70D480E593EC6DD480E593EC1E
:1001B0006AD480E593EC67D480E593EC64D480E561
:1001C00093EC61D480E593EC5ED480E593EC5BD452
:1001D0002A9719F480E197E256D4DF91CF910895E0
:1001E0008CE890E008958AE890E008958091880076
:1001F00090918900089580E690E00895F89484B77E
:10020000806284BF88B1806888B980B5896080BD0C
:1002100084B7877F84BF81B5806581BD81B58962E0
:1002200081BD87B3826087BB83B7846083BF89B792
:10023000826089BF82EC82BF88B3856088BB87B348
:10024000856087BB8FEF8FB98AE28DB980EF8EB959
:100250000EDFF7D038D37894CEDF9093A900809347
:10026000A80079DF0F931F93CF93DF93C82F8B01E3
:10027000E0918D00F0918E0080818D7F8083DC2F56
:10028000D07F8D2F8C60CED18D2F8860CBD1D0E0E8
:10029000C295D295D07FDC27C07FDC278C2F8C6065
:1002A000C1D18C2F8860BED1C801EDD3DF91CF9131
:1002B0001F910F910895CF93DF93C82FE0918D0088
:1002C000F0918E0080818D7F8083DC2FD07F8D2FF9
:1002D0008D60A8D18D2F8960A5D1D0E0C295D2952F
:1002E000D07FDC27C07FDC278C2F8D609BD18C2FAB
:1002F000896098D188E290E0C6D3DF91CF910895CC
:10030000FF920F931F93CF93DF9388E99AE3BBD3B8
:10031000E0918D00F0918E0080818D7F80833ED1B1
:1003200087E290D1F12C2EC0CF2DD0E08E01025D5E
:100330001F4FF8018491807F8C6074D1F801849103
:10034000807F88606FD1F801849190E082959295CA
:10035000907F9827807F98278C6064D1F8018491E2
:1003600090E082959295907F9827807F982788606B
:1003700059D1FE01EE0FFF1FE25EFF4F8591949170
:1003800082D3F394F7E0FF1508F0CECF1DD1DF91B3
:10039000CF911F910F91FF900895CF93C82FE091B7
:1003A0008D00F0918E0080818D7F80838091900000
:1003B00080FD04C08091900081FF18C08091900062
:1003C0008E7F80939000809190008D7F809390002D
:1003D000E5D087E237D168E676E081E043DF68E286
:1003E00070E080E83FDFF0D010928F00CA30B9F0A3
:1003F000CD30A9F0D3D087E225D180918F00803114
:1004000030F068E270E080EC2DDF10928F008C2FCE
:1004100052DFDAD080918F008F5F80938F00CA30D7
:1004200029F480919000816080939000CD3029F470
:100430008091900082608093900080E090E0CF9166
:10044000089507D190938E0080938D0059DF80E04E
:100450000895DF92EF92FF920F931F93CF93DF9354
:100460007B0144D2D82E811119C08EEB4AD1C0E055
:10047000D0E00DC087010C0F111DC7FD1A95BAD130
:10048000F8018083682F8D2FC9D1D82FCF5FC93055
:100490008CF3DD2329F0DD24D39402C0DD24D39432
:1004A0008D2DDF91CF911F910F91FF90EF90DF90F5
:1004B00008951F93CF93DF93EC0118D2811120C0D0
:1004C000CE0131D2182FCE0111D2C82F81111AC0FE
:1004D00084E417D1112381F088B3806188BB87B38E
:1004E000806187BB8EEE92E039DE87B38F7E87BB5B
:1004F00088B38F7E88BB07C0EFD08823E9F303C0A1
:10050000C1E001C0C1E08C2FDF91CF911F91089510
:100510009C01FB0111C0E199FECFF8943FBB2EBBBB
:1005200081918DBB9CB394609CBB9CB392609CBB3F
:1005300078942F5F3F4FAB01BA0161507109452B91
:1005400051F780E008959C01FB010CC0E199FECFBA
:100550003FBB2EBB9CB391609CBB8DB381932F5F3F
:100560003F4FAB01BA0161507109452B79F780E02B
:100570000895CF93CDB1C1600AC081E090E083D2ED
:10058000CDB9B29BFECF81E090E07DD2CDB9769B14
:10059000F4CF81E090E077D2CF91089588B3846062
:1005A00088BB81E090E06FD288B38E7F88BB81E00A
:1005B00090E069D288B38B7F88BB88B3816088BBA9
:1005C0008EB180688EB9089580E88FB988B38E7F28
:1005D00088BB88B3846088BBB29BFECF81E090E08B
:1005E00052D288B3816088BB81E090E04CD28EB15A
:1005F000806A8EB9089588B38B7F88BB8EB1817F66
:1006000080648EB9B6DF089587B38E7F87BB8EB1C5
:100610008E648EB91FB8ADDF87B3816087BB8FB1A1
:1006200081700895909191009E7F909391008FB971
:10063000E2DFEADF811105C0809191008160809343
:1006400091000895880F9091910091FD8160EADFFB
:10065000089581E990E00895B19B04C088B38D7F2F
:1006600088BB089588B3826088BB089597B3906172
:1006700097BB882351F086E090E005D287B38F7E48
:1006800087BB80E490E0FFD108958CE390E0FBD13C
:1006900087B38F7E87BB8AE090E0F5D10895CF9332
:1006A00087B3806187BB80EE91E0EDD187B38F7E09
:1006B00087BB86E490E0E7D186B3C82FC07184FD84
:1006C00007C087B38F7E87BB8AE991E0DCD101C088
:1006D000C1E08C2FCF910895CF9387B3806187BB02
:1006E00086E090E0D0D187B38F7E87BB89E090E031
:1006F000CAD1C6B3C07187E390E0C5D18C2FCF912A
:100700000895CF93DF93D82FC0E00BC08D2F90E0DA
:100710000C2E02C0959587950A94E2F78170A6DFAA
:10072000CF5FC83098F3DF91CF910895CF92DF92D9
:10073000EF92FF920F931F93CF93DF9390919200CC
:10074000992309F445C0C82FAADFD82E811143C0D0
:10075000E0909B008C2FD5DFD1E0F12CC12CC0E0C4
:1007600017E031C0B9DF082FB7DF01110EC08111CA
:1007700013C080919200D81720F4E0FE0AC0C06830
:100780000BC0D81308C0C06807C0811127C0C0685B
:1007900003C0CD2E01C0CD2E8C2F807867DF1111C4
:1007A0000EC0EF2DF0E0E556FF4FC083F394EF2D20
:1007B000F0E0E556FF4FE080C0E018E002C0E694AC
:1007C000C6951150DF5FD13468F2C092920008C024
:1007D000DD24D39405C0DD24D39402C0DD24D3945A
:1007E0008D2DDF91CF911F910F91FF90EF90DF90B2
:1007F000CF900895CF93DF93D0E080E00AC0C82F58
:10080000C6956ADF882311F080E801C080E08C2B58
:10081000DF5FD830A0F3DF91CF91089590E011C051
:10082000262F30E0092E02C0359527950A94E2F76D
:10083000282720FF04C086952CE8822701C08695D2
:100840009F5F983068F308950F931F93CF938C01A7
:1008500081E4809392002FC0EC2FF0E0E556FF4F2B
:100860006081DCDFCF5F02C0C0E080E0C830A0F371
:10087000811121C048E050E063E970E0C80163DE07
:1008800048E050E063E970E08BE990E009D188230B
:1008900031F048E050E06BE970E0C80139DE085FF4
:1008A0001F4F8091A3009091A3009F709F5F807F56
:1008B000892B8093A30080EF39DF8823A9F2CF91A1
:1008C0001F910F910895CF9387B38F7E87BB88B315
:1008D0008F7E88BBE4DEC82F811104C080E490E0E5
:1008E000B3DF01C0C1E08C2FCF9108950F931F9308
:1008F000CF93DF938C01D3DED82F81110DC085E516
:1009000000DFC0E006C0F801EC0FF11D8081F9DEC8
:10091000CF5FC830C0F301C0D1E08D2FDF91CF9100
:100920001F910F910895E2DF84EBEBDED5DE91E0BD
:10093000811190E0892F089583EA90E008951F9334
:10094000CF93DF93CDB7DEB761970FB6F894DEBFD4
:100950000FBECDBFE091A400F091A5009081891752
:1009600008F052C090E0089648E050E0BE016F5F8A
:100970007F4F880F991F880F991F880F991FE3DDFC
:10098000811144C0CE01019694DD811141C0BE01A8
:10099000675F7F4FCE0101965CDD182F81113AC051
:1009A00029853A85C9018F709927AC01440F551FDD
:1009B000480F591FBA01660F771F62957295707FB5
:1009C0007627607F7627460F571F840F951F9295D5
:1009D00082958F7089279F708927329522952F7075
:1009E00023273F70232799279F938F933F932F931C
:1009F00080E790E09F938F936FD00F900F900F90B0
:100A00000F900F900F9007C011E005C011E003C0D8
:100A100011E001C011E0812F61960FB6F894DEBF9E
:100A20000FBECDBFDF91CF911F910895CF93DF937C
:100A3000DDDBEC0180916E0090916F00C817D90743
:100A4000F1F47ADF9093A5008093A400D4DB909317
:100A5000A9008093A80080E072DF882359F01F92DC
:100A60001F928BE790E09F938F9336D00F900F905B
:100A70000F900F902496D0936F00C0936E0080E08B
:100A8000DF91CF91089509C0000000000000000030
:100A9000000000000000000001970097A9F70895EA
:100AA000CF93DF93EC01DA0120E030E00CC0FE01CF
:100AB000E20FF31F5081FB01E20FF31F90815913E6
:100AC00007C02F5F3F4F2A173B0788F380E001C024
:100AD00081E0DF91CF910895A0E0B0E0E1E7F5E09B
:100AE000ACC2AE014B5F5F4FFA0161917191AF01F2
:100AF0008091A8009091A90002D0E2E0BAC2ABE0D8
:100B0000B0E0E4E8F5E089C26C017B018A01FC01F8
:100B100017821682838181FFC0C1CE0101963C01FC
:100B2000F6019381F70193FD859193FF81917F01F8
:100B3000882309F4AEC1853239F493FD859193FF82
:100B400081917F01853221F4B60190E0C1D1E8CFD7
:100B5000912C212C312CFFE1F315E0F08B3279F050
:100B600038F4803279F08332A9F4232D206110C04B
:100B70008D3259F0803371F4232D216009C0832D0B
:100B80008260382EE32DE46022C0F32DF86025C08A
:100B9000322E27C037FC2DC020ED280F2A3088F4D4
:100BA00036FE06C0892D6AE02FD2922E980E19C00B
:100BB000822D6AE029D2222E280E832D8062382EC3
:100BC00010C08E3231F436FC64C1E32DE0643E2E59
:100BD00008C08C3621F4F32DF0683F2E02C0883611
:100BE00041F4F70193FD859193FF81917F0181117C
:100BF000B2CF982F9F7D9554933028F40C5F1F4FF0
:100C00002FE329830DC0833631F0833771F08335AC
:100C100009F055C020C0F801808189830E5F1F4F05
:100C200088248394912C530112C02801F2E04F0EC6
:100C3000511CF801A080B18036FE03C0692D70E020
:100C400002C06FEF7FEFC50138D14C018201F32D57
:100C5000FF773F2E15C0280122E0420E511CF801FB
:100C6000A080B18036FE03C0692D70E002C06FEF36
:100C70007FEFC50117D14C01F32DF0683F2E8201A3
:100C800033FC19C0822D90E088169906A0F4B601B5
:100C900080E290E01DD12A94F5CFF50137FC8591D3
:100CA00037FE81915F01B60190E012D121102A94A4
:100CB00021E0821A91088114910479F7E1C0843609
:100CC00011F0893639F5F80137FE07C0608171816E
:100CD000828193810C5F1F4F08C060817181072E54
:100CE000000C880B990B0E5F1F4FF32DFF763F2EE4
:100CF00097FF09C090958095709561957F4F8F4FB4
:100D00009F4FF0683F2E2AE030E0A3011DD1882ECE
:100D1000861844C0853731F4232D2F7EB22E2AE069
:100D200030E025C0932D997FB92E8F36C1F018F48D
:100D3000883579F0AEC0803719F0883721F0A9C026
:100D4000E92FE061BE2EB4FE0DC0FB2DF460BF2E76
:100D500009C034FE0AC0292F2660B22E06C028E042
:100D600030E005C020E130E002C020E132E0F801CF
:100D7000B7FE07C060817181828193810C5F1F4F34
:100D800006C06081718180E090E00E5F1F4FA3017B
:100D9000DBD0882E8618FB2DFF773F2E36FE0DC048
:100DA000232D2E7FA22E891458F434FE0BC032FC62
:100DB00009C0832D8E7EA82E05C0B82CA32C03C09D
:100DC000B82C01C0B92CA4FE0FC0FE01E80DF11D26
:100DD0008081803321F49A2D997EA92E09C0A2FE2C
:100DE00006C0B394B39404C08A2D867809F0B394F6
:100DF000A3FC10C0A0FE06C0B21480F4280C922CF4
:100E00009B180DC0B21458F4B60180E290E060D097
:100E1000B394F8CFB21418F42B1802C0982C212CDC
:100E2000A4FE0FC0B60180E390E052D0A2FE16C02F
:100E3000A1FC03C088E790E002C088E590E0B6011D
:100E40000CC08A2D867851F0A1FE02C08BE201C051
:100E500080E2A7FC8DE2B60190E03AD0891430F42C
:100E6000B60180E390E034D09A94F8CF8A94F301ED
:100E7000E80DF11D8081B60190E02AD08110F6CFF7
:100E8000222009F44DCEB60180E290E021D02A94D0
:100E9000F7CFF6018681978102C08FEF9FEF2B96E7
:100EA000E2E1D7C0FC010590615070400110D8F715
:100EB000809590958E0F9F1F0895FC0161507040A2
:100EC00001900110D8F7809590958E0F9F1F08957F
:100ED0000F931F93CF93DF93FB01238121FD03C069
:100EE0008FEF9FEF2CC022FF16C0468157812481CF
:100EF00035814217530744F4A081B1819D012F5FD2
:100F00003F4F318320838C93268137812F5F3F4F62
:100F10003783268314C08B01EC01FB010084F1852B
:100F2000E02D0995892BE1F6D80116968D919C91BB
:100F30001797019617969C938E931697CE01DF9183
:100F4000CF911F910F910895FA01AA27283061F1DE
:100F5000203191F1E8946F936E7F6E5F7F4F8F4FDA
:100F60009F4FAF4FB1E040D0B4E03ED0670F781F45
:100F7000891F9A1FA11D680F791F8A1F911DA11D2E
:100F80006A0F711D811D911DA11D22D009F4689465
:100F90003F91062E000C3019000C000C3019305D0A
:100FA0003193CEF6CF010895462F4770405D4193AF
:100FB000B3E00FD0C9F7F6CF462F4F70405D4A33EC
:100FC00018F0495D31FD4052419302D0A9F7EACFB4
:100FD000B4E0A6959795879577956795BA95C9F7E3
:100FE00000976105710508959B01AC010A2E0694D6
:100FF0005795479537952795BA95C9F7620F731F8F
:10100000841F951FA01D0895002480FD060E660F05
:1010100011F08695D1F7802D08952F923F924F922F
:101020005F926F927F928F929F92AF92BF92CF9278
:10103000DF92EF92FF920F931F93CF93DF93CDB781
:10104000DEB7CA1BDB0B0FB6F894DEBF0FBECDBFF9
:1010500009942A88398848885F846E847D848C84CA
:101060009B84AA84B984C884DF80EE80FD800C81D3
:101070001B81AA81B981CE0FD11D0FB6F894DEBFB6
:0C1080000FBECDBFED010895F894FFCF26
:10108C000000000200000000CD0100000000040080
:10109C00543A25642E253032750A004661696C3A43
:0410AC0025750A009C
:00000001FF
