:100000001AC034C033C032C031C03CC02FC02EC073
:100010002DC02CC02BC02AC059C028C027C0041036
:1000200064002800680628002800680628000303EA
:100030000302280C018011241FBECFE5D2E0DEBFF1
:10004000CDBF10E0A0E6B0E0EAEEFFE002C0059010
:100050000D92A238B107D9F720E0A2E8B0E001C0C4
:100060001D92AA3AB207E1F78AD0BDC7C9CFB9D06D
:100070009093850080938400B7D090938300809301
:10008000820008951F920F920FB60F9211248F9342
:100090009F93EF93FF9382EC82BFE0918400F091F5
:1000A0008500808181608083E0918200F0918300EF
:1000B00080819181019691838083FF91EF919F913F
:1000C0008F910F900FBE0F901F9018951F920F9257
:1000D0000FB60F9211248F93A89581B5806581BDCD
:1000E0008F910F900FBE0F901F901895F8948091EC
:1000F0008A0080FF22C080918A008E7F80938A00D0
:1001000080918800909189009370909389008093EA
:1001100088008091880090918900892B71F48091EA
:1001200086009091870001969093870080938600C7
:1001300080918A00826080938A00789408958091EB
:100140008A0081FF1BC080918A008D7F80938A0086
:1001500072D280E690E09093A7008093A6008091F1
:100160008600909187009F938F938EE690E09F93F7
:100170008F9361D40F900F900F900F900895F89483
:1001800084B7806284BF88B1806888B980B589608F
:1001900080BD84B7877F84BF81B5806581BD81B50F
:1001A000896281BD87B3826087BB83B7846083BF68
:1001B00089B7826089BF82EC82BF88B3856088BBC3
:1001C00087B3856087BB8FEF8FB98AE28DB980EFE7
:1001D0008EB94DDFFBD066D37894A0D387DFAFDF35
:1001E000FDCF8AE890E0089588E890E008950F93A5
:1001F0001F93CF93DF93C82F8B01E0918B00F09179
:100200008C0080818D7F8083DC2FD07F8D2F8C6050
:10021000F8D18D2F8860F5D1D0E0C295D295D07FEE
:10022000DC27C07FDC278C2F8C60EBD18C2F886083
:10023000E8D1C801D7D3DF91CF911F910F910895D5
:10024000CF93DF93C82FE0918B00F0918C008081D9
:100250008D7F8083DC2FD07F8D2F8D60D2D18D2F2D
:100260008960CFD1D0E0C295D295D07FDC27C07F06
:10027000DC278C2F8D60C5D18C2F8960C2D188E29C
:1002800090E0B0D3DF91CF910895FF920F931F9329
:10029000CF93DF9388E99AE3A5D3E0918B00F091A7
:1002A0008C0080818D7F808368D187E2BAD1F12C68
:1002B0002EC0CF2DD0E08E01025D1F4FF80184913A
:1002C000807F8C609ED1F8018491807F886099D175
:1002D000F801849190E082959295907F9827807F95
:1002E00098278C608ED1F801849190E08295929548
:1002F000907F9827807F9827886083D1FE01EE0F3A
:10030000FF1FE25EFF4F859194916CD3F394F7E069
:10031000FF1508F0CECF47D1DF91CF911F910F91FC
:10032000FF900895CF93C82FE0918B00F0918C003F
:1003300080818D7F808380918E0080FD04C08091BC
:100340008E0081FF18C080918E008E7F80938E007A
:1003500080918E008D7F80938E000FD187E261D1D6
:1003600068E676E081E043DF68E270E080E83FDF46
:100370001AD110928D00CA30B9F0CD30A9F0FDD05D
:1003800087E24FD180918D00803130F068E270E0DB
:1003900080EC2DDF10928D008C2F52DF04D18091E4
:1003A0008D008F5F80938D00CA3029F480918E007C
:1003B000816080938E00CD3029F480918E00826020
:1003C00080938E0080E090E0CF91089531D190939A
:1003D0008C0080938B0059DF81E00895DF92EF92CB
:1003E000FF920F931F93CF93DF937B016ED2D82E92
:1003F000811119C08EEB74D1C0E0D0E00DC087012F
:100400000C0F111DC7FD1A95E4D1F8018083682FE8
:100410008D2FF3D1D82FCF5FC9308CF3DD2329F096
:10042000DD24D39402C0DD24D3948D2DDF91CF91B0
:100430001F910F91FF90EF90DF9008951F93CF933E
:10044000DF93EC0142D281114AC0CE015BD2182F5A
:10045000CE013BD2C82F811144C084E441D1112385
:10046000D1F188B3806188BB87B3806187BB80E5A9
:1004700093ECB8D280E593ECB5D280E593ECB2D2A0
:1004800080E593ECAFD280E593ECACD280E593ECC1
:10049000A9D280E593ECA6D280E593ECA3D280E5C7
:1004A00093ECA0D280E593EC9DD280E593EC9AD2B8
:1004B00080E593EC97D280E593EC94D280E593ECC1
:1004C00091D280E593EC8ED287B38F7E87BB88B3C1
:1004D0008F7E88BB07C0EFD08823E9F303C0C1E05B
:1004E00001C0C1E08C2FDF91CF911F9108959C0135
:1004F000FB0111C0E199FECFF8943FBB2EBB819167
:100500008DBB9CB394609CBB9CB392609CBB789465
:100510002F5F3F4FAB01BA0161507109452B51F775
:1005200080E008959C01FB010CC0E199FECF3FBB28
:100530002EBB9CB391609CBB8DB381932F5F3F4FCB
:10054000AB01BA0161507109452B79F780E008953C
:10055000CF93CDB1C1600AC081E090E043D2CDB964
:10056000B29BFECF81E090E03DD2CDB9769BF4CF37
:1005700081E090E037D2CF91089588B3846088BB42
:1005800081E090E02FD288B38E7F88BB81E090E03D
:1005900029D288B38B7F88BB88B3816088BB8EB13A
:1005A00080688EB9089580E88FB988B38E7F88BB44
:1005B00088B3846088BBB29BFECF81E090E012D20A
:1005C00088B3816088BB81E090E00CD28EB1806AF4
:1005D0008EB9089588B38B7F88BB8EB1817F80648C
:1005E0008EB9B6DF089587B38E7F87BB8EB18E64D8
:1005F0008EB91FB8ADDF87B3816087BB8FB18170C3
:10060000089590918F009E7F90938F008FB9E2DFC5
:10061000EADF811105C080918F00816080938F0097
:100620000895880F90918F0091FD8160EADF089511
:100630008FE890E00895B19B04C088B38D7F88BB9C
:10064000089588B3826088BB089597B3906197BB83
:10065000882351F086E090E0C5D187B38F7E87BBB9
:1006600080E490E0BFD108958CE390E0BBD187B3E4
:100670008F7E87BB8AE090E0B5D10895CF9387B392
:10068000806187BB80EE91E0ADD187B38F7E87BB61
:1006900086E490E0A7D186B3C82FC07184FD07C05F
:1006A00087B38F7E87BB8AE991E09CD101C0C1E00E
:1006B0008C2FCF910895CF9387B3806187BB86E05D
:1006C00090E090D187B38F7E87BB89E090E08AD19C
:1006D000C6B3C07187E390E085D18C2FCF91089588
:1006E000CF93DF93D82FC0E00BC08D2F90E00C2E5E
:1006F00002C0959587950A94E2F78170A6DFCF5FD7
:10070000C83098F3DF91CF910895CF92DF92EF92A6
:10071000FF920F931F93CF93DF93909190009923B3
:1007200009F445C0C82FAADFD82E811143C0E0903C
:1007300099008C2FD5DFD1E0F12CC12CC0E017E05F
:1007400031C0B9DF082FB7DF01110EC0811113C00E
:1007500080919000D81720F4E0FE0AC0C0680BC05A
:10076000D81308C0C06807C0811127C0C06803C083
:10077000CD2E01C0CD2E8C2F807867DF11110EC0D9
:10078000EF2DF0E0E756FF4FC083F394EF2DF0E03C
:10079000E756FF4FE080C0E018E002C0E694C6953F
:1007A0001150DF5FD13468F2C092900008C0DD24A0
:1007B000D39405C0DD24D39402C0DD24D3948D2DC1
:1007C000DF91CF911F910F91FF90EF90DF90CF902D
:1007D0000895CF93DF93D0E080E00AC0C82FC6957C
:1007E0006ADF882311F080E801C080E08C2BDF5F96
:1007F000D830A0F3DF91CF91089590E011C0262F5B
:1008000030E0092E02C0359527950A94E2F7282793
:1008100020FF04C086952CE8822701C086959F5F43
:10082000983068F308950F931F93CF938C0181E460
:10083000809390002FC0EC2FF0E0E756FF4F6081CF
:10084000DCDFCF5F02C0C0E080E0C830A0F38111E0
:1008500021C048E050E061E970E0C80163DE48E093
:1008600050E061E970E089E990E0C9D0882331F077
:1008700048E050E069E970E0C80139DE085F1F4FC9
:100880008091A1009091A1009F709F5F807F892B34
:100890008093A10080EF39DF8823A9F2CF911F91C7
:1008A0000F910895CF9387B38F7E87BB88B38F7ED8
:1008B00088BBE4DEC82F811104C080E490E0B3DF80
:1008C00001C0C1E08C2FCF9108950F931F93CF9358
:1008D000DF938C01D3DED82F81110DC085E500DFB9
:1008E000C0E006C0F801EC0FF11D8081F9DECF5F9A
:1008F000C830C0F301C0D1E08D2FDF91CF911F919F
:100900000F910895E2DF84EBEBDED5DE91E08111FB
:1009100090E0892F089581EA90E008951F93CF9386
:10092000DF93CDB7DEB761970FB6F894DEBF0FBE89
:10093000CDBFF1DF9093A3008093A20010E034C0FC
:1009400048E050E0BE016F5F7F4F80E490E0EADD59
:10095000811139C0CE01019671DD811136C0BE0111
:10096000675F7F4FCE01019639DD811130C0E98587
:10097000F0E080819181929582958F7089279F7098
:1009800089271F921F92082E000C990B9F938F931B
:1009900086E790E09F938F934ED01F5F0F900F904C
:1009A0000F900F900F900F90212F30E0E091A20058
:1009B000F091A30080818F7090E0281739070CF424
:1009C000BFCF80E005C081E003C081E001C081E0CD
:1009D00061960FB6F894DEBF0FBECDBFDF91CF9109
:1009E0001F91089509C000000000000000000000F1
:1009F00000000000000001970097A9F70895CF9329
:100A0000DF93EC01DA0120E030E00CC0FE01E20FE0
:100A1000F31F5081FB01E20FF31F9081591307C0B0
:100A20002F5F3F4F2A173B0788F380E001C081E02A
:100A3000DF91CF910895A0E0B0E0E0E2F5E0ACC234
:100A4000AE014B5F5F4FFA0161917191AF018091EF
:100A5000A6009091A70002D0E2E0BAC2ABE0B0E0FD
:100A6000E3E3F5E089C26C017B018A01FC01178296
:100A70001682838181FFC0C1CE0101963C01F6013F
:100A80009381F70193FD859193FF81917F018823E5
:100A900009F4AEC1853239F493FD859193FF8191BC
:100AA0007F01853221F4B60190E0C1D1E8CF912CCD
:100AB000212C312CFFE1F315E0F08B3279F038F482
:100AC000803279F08332A9F4232D206110C08D3259
:100AD00059F0803371F4232D216009C0832D826089
:100AE000382EE32DE46022C0F32DF86025C0322EAD
:100AF00027C037FC2DC020ED280F2A3088F436FEA1
:100B000006C0892D6AE02FD2922E980E19C0822D30
:100B10006AE029D2222E280E832D8062382E10C042
:100B20008E3231F436FC64C1E32DE0643E2E08C001
:100B30008C3621F4F32DF0683F2E02C0883641F444
:100B4000F70193FD859193FF81917F018111B2CFD0
:100B5000982F9F7D9554933028F40C5F1F4F2FE3FF
:100B600029830DC0833631F0833771F0833509F066
:100B700055C020C0F801808189830E5F1F4F8824F3
:100B80008394912C530112C02801F2E04F0E511CA6
:100B9000F801A080B18036FE03C0692D70E002C06C
:100BA0006FEF7FEFC50138D14C018201F32DFF7744
:100BB0003F2E15C0280122E0420E511CF801A080F2
:100BC000B18036FE03C0692D70E002C06FEF7FEF89
:100BD000C50117D14C01F32DF0683F2E820133FC83
:100BE00019C0822D90E088169906A0F4B60180E223
:100BF00090E01DD12A94F5CFF50137FC859137FEA1
:100C000081915F01B60190E012D121102A9421E078
:100C1000821A91088114910479F7E1C0843611F0A9
:100C2000893639F5F80137FE07C06081718182810C
:100C300093810C5F1F4F08C060817181072E000CEB
:100C4000880B990B0E5F1F4FF32DFF763F2E97FFFA
:100C500009C090958095709561957F4F8F4F9F4FFC
:100C6000F0683F2E2AE030E0A3011DD1882E8618BF
:100C700044C0853731F4232D2F7EB22E2AE030E098
:100C800025C0932D997FB92E8F36C1F018F4883581
:100C900079F0AEC0803719F0883721F0A9C0E92F6C
:100CA000E061BE2EB4FE0DC0FB2DF460BF2E09C066
:100CB00034FE0AC0292F2660B22E06C028E030E09C
:100CC00005C020E130E002C020E132E0F801B7FECB
:100CD00007C060817181828193810C5F1F4F06C0C4
:100CE0006081718180E090E00E5F1F4FA301DBD037
:100CF000882E8618FB2DFF773F2E36FE0DC0232D44
:100D00002E7FA22E891458F434FE0BC032FC09C089
:100D1000832D8E7EA82E05C0B82CA32C03C0B82C22
:100D200001C0B92CA4FE0FC0FE01E80DF11D8081A9
:100D3000803321F49A2D997EA92E09C0A2FE06C007
:100D4000B394B39404C08A2D867809F0B394A3FCBD
:100D500010C0A0FE06C0B21480F4280C922C9B1880
:100D60000DC0B21458F4B60180E290E060D0B394A4
:100D7000F8CFB21418F42B1802C0982C212CA4FE22
:100D80000FC0B60180E390E052D0A2FE16C0A1FCD5
:100D900003C088E790E002C088E590E0B6010CC08F
:100DA0008A2D867851F0A1FE02C08BE201C080E25C
:100DB000A7FC8DE2B60190E03AD0891430F4B60178
:100DC00080E390E034D09A94F8CF8A94F301E80D50
:100DD000F11D8081B60190E02AD08110F6CF22204B
:100DE00009F44DCEB60180E290E021D02A94F7CFED
:100DF000F6018681978102C08FEF9FEF2B96E2E18B
:100E0000D7C0FC010590615070400110D8F7809563
:100E100090958E0F9F1F0895FC01615070400190C6
:100E20000110D8F7809590958E0F9F1F08950F930E
:100E30001F93CF93DF93FB01238121FD03C08FEF2D
:100E40009FEF2CC022FF16C0468157812481358137
:100E50004217530744F4A081B1819D012F5F3F4F9A
:100E6000318320838C93268137812F5F3F4F3783D7
:100E7000268314C08B01EC01FB010084F185E02D79
:100E80000995892BE1F6D80116968D919C911797BB
:100E9000019617969C938E931697CE01DF91CF9172
:100EA0001F910F910895FA01AA27283061F120318E
:100EB00091F1E8946F936E7F6E5F7F4F8F4F9F4FDE
:100EC000AF4FB1E040D0B4E03ED0670F781F891F2C
:100ED0009A1FA11D680F791F8A1F911DA11D6A0FFE
:100EE000711D811D911DA11D22D009F468943F91AF
:100EF000062E000C3019000C000C3019305D3193B7
:100F0000CEF6CF010895462F4770405D4193B3E080
:100F10000FD0C9F7F6CF462F4F70405D4A3318F017
:100F2000495D31FD4052419302D0A9F7EACFB4E0C8
:100F3000A6959795879577956795BA95C9F7009780
:100F40006105710508959B01AC010A2E0694579521
:100F5000479537952795BA95C9F7620F731F841F78
:100F6000951FA01D0895002480FD060E660F11F048
:100F70008695D1F7802D08952F923F924F925F92E0
:100F80006F927F928F929F92AF92BF92CF92DF9299
:100F9000EF92FF920F931F93CF93DF93CDB7DEB7FE
:100FA000CA1BDB0B0FB6F894DEBF0FBECDBF099492
:100FB0002A88398848885F846E847D848C849B84E9
:100FC000AA84B984C884DF80EE80FD800C811B81F7
:100FD000AA81B981CE0FD11D0FB6F894DEBF0FBE26
:0A0FE000CDBFED010895F894FFCF96
:100FEA00000000020000000092010000000073658A
:100FFA00633A25750A00543A2025642E2530327545
:02100A000A00DA
:00000001FF
