:100000001AC034C033C032C031C03CC02FC02EC073
:100010002DC02CC02BC02AC059C028C027C0041036
:1000200064002800680628002800680628000303EA
:100030000302280C018011241FBECFE5D2E0DEBFF1
:10004000CDBF10E0A0E6B0E0E4E9FDE002C005901D
:100050000D92A637B107D9F720E0A6E7B0E001C0BE
:100060001D92AC39B207E1F78AD092C6C9CFB8D099
:100070009093790080937800B6D090937700809326
:10008000760008951F920F920FB60F9211248F934E
:100090009F93EF93FF9382EC82BFE0917800F09101
:1000A0007900808181608083E0917600F091770013
:1000B00080819181019691838083FF91EF919F913F
:1000C0008F910F900FBE0F901F9018951F920F9257
:1000D0000FB60F9211248F93A89581B5806581BDCD
:1000E0008F910F900FBE0F901F901895F8948091EC
:1000F0007E0080FF22C080917E008E7F80937E00F4
:1001000080917C0090917D00937090937D0080930E
:100110007C0080917C0090917D00892B71F480910E
:100120007A0090917B00019690937B0080937A00F7
:1001300080917E00826080937E0078940895809103
:100140007E0081FF1BC080917E008D7F80937E00AA
:10015000E8D180E690E09093990080939800809198
:100160007A0090917B009F938F938EE690E09F930F
:100170008F9336D30F900F900F900F900895F894AF
:1001800084B7806284BF88B1806888B980B589608F
:1001900080BD84B7877F84BF81B5806581BD81B50F
:1001A000896281BD87B3826087BB83B7846083BF68
:1001B00089B7826089BF82EC82BF88B3856088BBC3
:1001C00087B3856087BB8FEF8FB98AE28DB980EFE7
:1001D0008EB94DDFFAD0C8D2789488DFB0DFFDCF7A
:1001E0008EE790E008958CE790E008950F931F93B9
:1001F000CF93DF93C82F8B01E0917F00F0918000B7
:1002000080818D7F8083DC2FD07F8D2F8C606FD19C
:100210008D2F88606CD1D0E0C295D295D07FDC273D
:10022000C07FDC278C2F8C6062D18C2F88605FD1DF
:10023000C801ADD2DF91CF911F910F910895CF9357
:10024000DF93C82FE0917F00F091800080818D7F47
:100250008083DC2FD07F8D2F8D6049D18D2F8960D9
:1002600046D1D0E0C295D295D07FDC27C07FDC2775
:100270008C2F8D603CD18C2F896039D188E290E041
:1002800086D2DF91CF910895FF920F931F93CF9362
:10029000DF9388E99AE37BD2E0917F00F0918000C0
:1002A00080818D7F8083DFD087E231D1F12C2EC019
:1002B000CF2DD0E08E01025D1F4FF8018491807F29
:1002C0008C6015D1F8018491807F886010D1F8018D
:1002D000849190E082959295907F9827807F9827CF
:1002E0008C6005D1F801849190E082959295907F81
:1002F0009827807F98278860FAD0FE01EE0FFF1FB5
:10030000E25EFF4F8591949142D2F394F7E0FF159E
:1003100008F0CECFBED0DF91CF911F910F91FF900B
:100320000895CF93C82FE0917F00F09180008081E5
:100330008D7F80838091820080FD04C08091820047
:1003400081FF18C0809182008E7F8093820080910F
:1003500082008D7F8093820086D087E2D8D068E6C5
:1003600076E081E043DF68E270E080E83FDF91D033
:1003700010928100CA30B9F0CD30A9F074D087E274
:10038000C6D080918100803130F068E270E080EC6E
:100390002DDF109281008C2F52DF7BD08091810065
:1003A0008F5F80938100CA3029F480918200816040
:1003B00080938200CD3029F4809182008260809306
:1003C000820080E090E0CF910895A8D090938000C3
:1003D00080937F0059DF81E008959C01FB0111C0EB
:1003E000E199FECFF8943FBB2EBB81918DBB9CB3AE
:1003F00094609CBB9CB392609CBB78942F5F3F4FF2
:10040000AB01BA0161507109452B51F780E00895A5
:100410009C01FB010CC0E199FECF3FBB2EBB9CB3FE
:1004200091609CBB8DB381932F5F3F4FAB01BA01AD
:1004300061507109452B79F780E00895CF93CDB1D4
:10044000C1600AC081E090E0A2D1CDB9B29BFECFDD
:1004500081E090E09CD1CDB9769BF4CF81E090E033
:1004600096D1CF91089588B3846088BB81E090E0F5
:100470008ED188B38E7F88BB81E090E088D188B32D
:100480008B7F88BB88B3816088BB8EB180688EB952
:10049000089580E88FB988B38E7F88BB88B3846065
:1004A00088BBB29BFECF81E090E071D188B38160C0
:1004B00088BB81E090E06BD18EB1806A8EB90895DF
:1004C00088B38B7F88BB8EB1817F80648EB9B6DFA5
:1004D000089587B38E7F87BB8EB18E648EB91FB8A7
:1004E000ADDF87B3816087BB8FB181700895909134
:1004F00083009E7F909383008FB9E2DFEADF811152
:1005000005C0809183008160809383000895880FE7
:100510009091830091FD8160EADF089583E890E087
:100520000895B19B04C088B38D7F88BB089588B3BC
:10053000826088BB089597B3906197BB882351F080
:1005400086E090E024D187B38F7E87BB80E490E083
:100550001ED108958CE390E01AD187B38F7E87BBBC
:100560008AE090E014D10895CF9387B3806187BB70
:1005700080EE91E00CD187B38F7E87BB86E490E05C
:1005800006D186B3C82FC07184FD07C087B38F7EA4
:1005900087BB8AE991E0FBD001C0C1E08C2FCF91ED
:1005A0000895CF9387B3806187BB86E090E0EFD05A
:1005B00087B38F7E87BB89E090E0E9D0C6B3C07176
:1005C00087E390E0E4D08C2FCF910895CF93DF9311
:1005D000D82FC0E00BC08D2F90E00C2E02C0959557
:1005E00087950A94E2F78170A6DFCF5FC83098F351
:1005F000DF91CF910895CF92DF92EF92FF920F9308
:100600001F93CF93DF9390918C00992309F445C0F9
:10061000C82FAADFD82E811143C0E0908D008C2F07
:10062000D5DFD1E0F12CC12CC0E017E031C0B9DF3B
:10063000082FB7DF01110EC0811113C080918C000B
:10064000D81720F4E0FE0AC0C0680BC0D81308C059
:10065000C06807C0811127C0C06803C0CD2E01C08B
:10066000CD2E8C2F807867DF11110EC0EF2DF0E0BA
:10067000E357FF4FC083F394EF2DF0E0E357FF4FB4
:10068000E080C0E018E002C0E694C6951150DF5F3C
:10069000D13468F2C0928C0008C0DD24D39405C028
:1006A000DD24D39402C0DD24D3948D2DDF91CF912E
:1006B0001F910F91FF90EF90DF90CF90089590E001
:1006C00011C0262F30E0092E02C0359527950A94D7
:1006D000E2F7282720FF04C086952CE8822701C076
:1006E00086959F5F983068F308950F931F93CF937B
:1006F0008C0181E480938C002FC0EC2FF0E0E35755
:10070000FF4F6081DCDFCF5F02C0C0E080E0C83017
:10071000A0F3811121C048E050E064E870E0C80116
:1007200077DE48E050E064E870E08DE890E03CD08F
:10073000882331F048E050E06DE870E0C8014DDEFC
:10074000085F1F4F80919500909195009F709F5F6B
:10075000807F892B8093950080EF4DDF8823A9F25D
:10076000CF911F910F910895CF9387B38F7E87BB51
:1007700088B38F7E88BBF8DEC82F811104C080E467
:1007800090E0B3DF01C0C1E08C2FCF91089509C084
:100790000000000000000000000000000000000059
:1007A00001970097A9F70895CF93DF93EC01DA0141
:1007B00020E030E00CC0FE01E20FF31F5081FB018E
:1007C000E20FF31F9081591307C02F5F3F4F2A1785
:1007D0003B0788F380E001C081E0DF91CF9108956D
:1007E000A0E0B0E0E5EFF3E0ACC2AE014B5F5F4FDD
:1007F000FA0161917191AF018091980090919900F7
:1008000002D0E2E0BAC2ABE0B0E0E8E0F4E089C2D6
:100810006C017B018A01FC0117821682838181FFB2
:10082000C0C1CE0101963C01F6019381F70193FD11
:10083000859193FF81917F01882309F4AEC18532B0
:1008400039F493FD859193FF81917F01853221F4E5
:10085000B60190E0C1D1E8CF912C212C312CFFE1E1
:10086000F315E0F08B3279F038F4803279F083328E
:10087000A9F4232D206110C08D3259F0803371F41A
:10088000232D216009C0832D8260382EE32DE46082
:1008900022C0F32DF86025C0322E27C037FC2DC0B2
:1008A00020ED280F2A3088F436FE06C0892D6AE034
:1008B0002FD2922E980E19C0822D6AE029D2222EB4
:1008C000280E832D8062382E10C08E3231F436FC13
:1008D00064C1E32DE0643E2E08C08C3621F4F32D74
:1008E000F0683F2E02C0883641F4F70193FD8591F0
:1008F00093FF81917F018111B2CF982F9F7D9554F5
:10090000933028F40C5F1F4F2FE329830DC08336EB
:1009100031F0833771F0833509F055C020C0F801FC
:10092000808189830E5F1F4F88248394912C53010B
:1009300012C02801F2E04F0E511CF801A080B180D6
:1009400036FE03C0692D70E002C06FEF7FEFC50176
:1009500038D14C018201F32DFF773F2E15C02801BD
:1009600022E0420E511CF801A080B18036FE03C087
:10097000692D70E002C06FEF7FEFC50117D14C0108
:10098000F32DF0683F2E820133FC19C0822D90E0D8
:1009900088169906A0F4B60180E290E01DD12A9451
:1009A000F5CFF50137FC859137FE81915F01B601E6
:1009B00090E012D121102A9421E0821A910881142A
:1009C000910479F7E1C0843611F0893639F5F801E0
:1009D00037FE07C060817181828193810C5F1F4F58
:1009E00008C060817181072E000C880B990B0E5F87
:1009F0001F4FF32DFF763F2E97FF09C090958095EE
:100A0000709561957F4F8F4F9F4FF0683F2E2AE082
:100A100030E0A3011DD1882E861844C0853731F4FB
:100A2000232D2F7EB22E2AE030E025C0932D997F12
:100A3000B92E8F36C1F018F4883579F0AEC0803702
:100A400019F0883721F0A9C0E92FE061BE2EB4FE6D
:100A50000DC0FB2DF460BF2E09C034FE0AC0292F43
:100A60002660B22E06C028E030E005C020E130E06C
:100A700002C020E132E0F801B7FE07C06081718159
:100A8000828193810C5F1F4F06C06081718180E07D
:100A900090E00E5F1F4FA301DBD0882E8618FB2D40
:100AA000FF773F2E36FE0DC0232D2E7FA22E8914F8
:100AB00058F434FE0BC032FC09C0832D8E7EA82E64
:100AC00005C0B82CA32C03C0B82C01C0B92CA4FEBF
:100AD0000FC0FE01E80DF11D8081803321F49A2DB5
:100AE000997EA92E09C0A2FE06C0B394B39404C097
:100AF0008A2D867809F0B394A3FC10C0A0FE06C02E
:100B0000B21480F4280C922C9B180DC0B21458F427
:100B1000B60180E290E060D0B394F8CFB21418F43C
:100B20002B1802C0982C212CA4FE0FC0B60180E324
:100B300090E052D0A2FE16C0A1FC03C088E790E06E
:100B400002C088E590E0B6010CC08A2D867851F08D
:100B5000A1FE02C08BE201C080E2A7FC8DE2B601DB
:100B600090E03AD0891430F4B60180E390E034D0BC
:100B70009A94F8CF8A94F301E80DF11D8081B601B3
:100B800090E02AD08110F6CF222009F44DCEB60194
:100B900080E290E021D02A94F7CFF60186819781F8
:100BA00002C08FEF9FEF2B96E2E1D7C0FC010590CA
:100BB000615070400110D8F7809590958E0F9F1F5F
:100BC0000895FC016150704001900110D8F78095A4
:100BD00090958E0F9F1F08950F931F93CF93DF93D0
:100BE000FB01238121FD03C08FEF9FEF2CC022FF6B
:100BF00016C046815781248135814217530744F43A
:100C0000A081B1819D012F5F3F4F318320838C9361
:100C1000268137812F5F3F4F3783268314C08B0196
:100C2000EC01FB010084F185E02D0995892BE1F6AB
:100C3000D80116968D919C911797019617969C93C3
:100C40008E931697CE01DF91CF911F910F9108954A
:100C5000FA01AA27283061F1203191F1E8946F93CD
:100C60006E7F6E5F7F4F8F4F9F4FAF4FB1E040D091
:100C7000B4E03ED0670F781F891F9A1FA11D680F2F
:100C8000791F8A1F911DA11D6A0F711D811D911D64
:100C9000A11D22D009F468943F91062E000C301952
:100CA000000C000C3019305D3193CEF6CF01089561
:100CB000462F4770405D4193B3E00FD0C9F7F6CFA0
:100CC000462F4F70405D4A3318F0495D31FD405268
:100CD000419302D0A9F7EACFB4E0A69597958795FE
:100CE00077956795BA95C9F70097610571050895DD
:100CF0009B01AC010A2E0694579547953795279589
:100D0000BA95C9F7620F731F841F951FA01D089520
:100D1000002480FD060E660F11F08695D1F7802D18
:100D200008952F923F924F925F926F927F928F928F
:100D30009F92AF92BF92CF92DF92EF92FF920F936A
:100D40001F93CF93DF93CDB7DEB7CA1BDB0B0FB674
:100D5000F894DEBF0FBECDBF09942A883988488831
:100D60005F846E847D848C849B84AA84B984C884C7
:100D7000DF80EE80FD800C811B81AA81B981CE0FBE
:100D8000D11D0FB6F894DEBF0FBECDBFED010895A3
:040D9000F894FFCF05
:100D940000000002000000009101000000007365E3
:060DA400633A25640A0019
:00000001FF
