:100000000EC028C027C026C025C030C023C022C0D3
:1000100021C020C01FC01EC04DC01CC01BC0112469
:100020001FBECFE5D2E0DEBFCDBF10E0A0E6B0E05E
:10003000EAEEF8E002C005900D92A237B107D9F7B9
:1000400020E0A2E7B0E001C01D92A538B207E1F7B9
:100050008AD049C4D5CFB7D09093750080937400EF
:10006000B5D0909373008093720008951F920F9201
:100070000FB60F9211248F939F93EF93FF9382EC0F
:1000800082BFE0917400F09175008081816080836F
:10009000E0917200F09173008081918101969183CB
:1000A0008083FF91EF919F918F910F900FBE0F90E2
:1000B0001F9018951F920F920FB60F9211248F93D5
:1000C000A89581B5806581BD8F910F900FBE0F906F
:1000D0001F901895F89480917A0080FF22C080913B
:1000E0007A008E7F80937A008091780090917900D9
:1000F000937090937900809378008091780090912C
:100100007900892B71F480917600909177000196A7
:10011000909377008093760080917A00826080933C
:100120007A007894089580917A0081FF1BC08091B5
:100130007A008D7F80937A00E7D080E690E09093FC
:1001400082008093810080917600909177009F9348
:100150008F938EE690E09F938F93EDD00F900F904A
:100160000F900F900895F89484B7806284BF88B18F
:10017000806888B980B5896080BD84B7877F84BF77
:1001800081B5806581BD81B5896281BD87B382609B
:1001900087BB83B7846083BF89B7826089BF82ECE5
:1001A00082BF88B3856088BB87B3856087BB8FEFCC
:1001B0008FB98AE28DB980EE8EB94DDF2DD078945B
:1001C00089DFB1DFFDCF8AE790E0089588E790E00E
:1001D000089580E593ECA2D0E0917B00F0917C0043
:1001E00080818D7F808334D080E390E097D08CE352
:1001F00081D044D008958A3029F490917D00916097
:1002000090937D008D3029F480917D0082608093F1
:100210007D0080E090E0089574D090937C008093FE
:100220007B00D7DF0895CF93CDB1C1600AC084E0D1
:1002300090E074D0CDB9B29BFECF84E090E06ED058
:10024000CDB9769BF4CF86E090E068D0CF91089549
:1002500088B3846088BB84E090E060D088B38E7FF0
:1002600088BB84E090E05AD088B38B7F88BB88B38A
:10027000816088BB8EB180688EB9089588B38E7F07
:1002800088BB88B3846088BBB29BFECF84E090E0DB
:1002900045D088B3816088BB84E090E03FD08EB1C8
:1002A00080628EB9089588B38B7F88BB8EB1817FC1
:1002B00080648EB9B8DF089587B38E7F87BB8EB117
:1002C0008E648EB91FB8AFDF87B3816087BB8FB1F3
:1002D0008170089590917E009E7F90937E008FB9EB
:1002E000E2DFEADF811105C080917E0081608093AA
:1002F0007E000895880F90917E0091FD8160EADF75
:1003000008958EE790E00895B19B04C088B38D7F77
:1003100088BB089588B3826088BB089509C0000037
:100320000000000000000000000000000000019735
:100330000097A9F70895A0E0B0E0E0EAF1E0ACC2D0
:10034000AE014B5F5F4FFA0161917191AF018091F6
:1003500081009091820002D0E2E0BAC2ABE0B0E04E
:10036000E3EBF1E089C26C017B018A01FC01178299
:100370001682838181FFC0C1CE0101963C01F60146
:100380009381F70193FD859193FF81917F018823EC
:1003900009F4AEC1853239F493FD859193FF8191C3
:1003A0007F01853221F4B60190E0C1D1E8CF912CD4
:1003B000212C312CFFE1F315E0F08B3279F038F489
:1003C000803279F08332A9F4232D206110C08D3260
:1003D00059F0803371F4232D216009C0832D826090
:1003E000382EE32DE46022C0F32DF86025C0322EB4
:1003F00027C037FC2DC020ED280F2A3088F436FEA8
:1004000006C0892D6AE02FD2922E980E19C0822D37
:100410006AE029D2222E280E832D8062382E10C049
:100420008E3231F436FC64C1E32DE0643E2E08C008
:100430008C3621F4F32DF0683F2E02C0883641F44B
:10044000F70193FD859193FF81917F018111B2CFD7
:10045000982F9F7D9554933028F40C5F1F4F2FE306
:1004600029830DC0833631F0833771F0833509F06D
:1004700055C020C0F801808189830E5F1F4F8824FA
:100480008394912C530112C02801F2E04F0E511CAD
:10049000F801A080B18036FE03C0692D70E002C073
:1004A0006FEF7FEFC50138D14C018201F32DFF774B
:1004B0003F2E15C0280122E0420E511CF801A080F9
:1004C000B18036FE03C0692D70E002C06FEF7FEF90
:1004D000C50117D14C01F32DF0683F2E820133FC8A
:1004E00019C0822D90E088169906A0F4B60180E22A
:1004F00090E01DD12A94F5CFF50137FC859137FEA8
:1005000081915F01B60190E012D121102A9421E07F
:10051000821A91088114910479F7E1C0843611F0B0
:10052000893639F5F80137FE07C060817181828113
:1005300093810C5F1F4F08C060817181072E000CF2
:10054000880B990B0E5F1F4FF32DFF763F2E97FF01
:1005500009C090958095709561957F4F8F4F9F4F03
:10056000F0683F2E2AE030E0A3011DD1882E8618C6
:1005700044C0853731F4232D2F7EB22E2AE030E09F
:1005800025C0932D997FB92E8F36C1F018F4883588
:1005900079F0AEC0803719F0883721F0A9C0E92F73
:1005A000E061BE2EB4FE0DC0FB2DF460BF2E09C06D
:1005B00034FE0AC0292F2660B22E06C028E030E0A3
:1005C00005C020E130E002C020E132E0F801B7FED2
:1005D00007C060817181828193810C5F1F4F06C0CB
:1005E0006081718180E090E00E5F1F4FA301DBD03E
:1005F000882E8618FB2DFF773F2E36FE0DC0232D4B
:100600002E7FA22E891458F434FE0BC032FC09C090
:10061000832D8E7EA82E05C0B82CA32C03C0B82C29
:1006200001C0B92CA4FE0FC0FE01E80DF11D8081B0
:10063000803321F49A2D997EA92E09C0A2FE06C00E
:10064000B394B39404C08A2D867809F0B394A3FCC4
:1006500010C0A0FE06C0B21480F4280C922C9B1887
:100660000DC0B21458F4B60180E290E060D0B394AB
:10067000F8CFB21418F42B1802C0982C212CA4FE29
:100680000FC0B60180E390E052D0A2FE16C0A1FCDC
:1006900003C088E790E002C088E590E0B6010CC096
:1006A0008A2D867851F0A1FE02C08BE201C080E263
:1006B000A7FC8DE2B60190E03AD0891430F4B6017F
:1006C00080E390E034D09A94F8CF8A94F301E80D57
:1006D000F11D8081B60190E02AD08110F6CF222052
:1006E00009F44DCEB60180E290E021D02A94F7CFF4
:1006F000F6018681978102C08FEF9FEF2B96E2E192
:10070000D7C0FC010590615070400110D8F780956A
:1007100090958E0F9F1F0895FC01615070400190CD
:100720000110D8F7809590958E0F9F1F08950F9315
:100730001F93CF93DF93FB01238121FD03C08FEF34
:100740009FEF2CC022FF16C046815781248135813E
:100750004217530744F4A081B1819D012F5F3F4FA1
:10076000318320838C93268137812F5F3F4F3783DE
:10077000268314C08B01EC01FB010084F185E02D80
:100780000995892BE1F6D80116968D919C911797C2
:10079000019617969C938E931697CE01DF91CF9179
:1007A0001F910F910895FA01AA27283061F1203195
:1007B00091F1E8946F936E7F6E5F7F4F8F4F9F4FE5
:1007C000AF4FB1E040D0B4E03ED0670F781F891F33
:1007D0009A1FA11D680F791F8A1F911DA11D6A0F05
:1007E000711D811D911DA11D22D009F468943F91B6
:1007F000062E000C3019000C000C3019305D3193BE
:10080000CEF6CF010895462F4770405D4193B3E087
:100810000FD0C9F7F6CF462F4F70405D4A3318F01E
:10082000495D31FD4052419302D0A9F7EACFB4E0CF
:10083000A6959795879577956795BA95C9F7009787
:100840006105710508959B01AC010A2E0694579528
:10085000479537952795BA95C9F7620F731F841F7F
:10086000951FA01D0895002480FD060E660F11F04F
:100870008695D1F7802D08952F923F924F925F92E7
:100880006F927F928F929F92AF92BF92CF92DF92A0
:10089000EF92FF920F931F93CF93DF93CDB7DEB705
:1008A000CA1BDB0B0FB6F894DEBF0FBECDBF099499
:1008B0002A88398848885F846E847D848C849B84F0
:1008C000AA84B984C884DF80EE80FD800C811B81FE
:1008D000AA81B981CE0FD11D0FB6F894DEBF0FBE2D
:0A08E000CDBFED010895F894FFCF9D
:1008EA000000000200000000FB0000000000256478
:0208FA000A00F2
:00000001FF
