:1000000042C15CC15BC15AC159C164C157C156C12B
:1000100055C154C153C152C181C150C14FC100002B
:1000200000000000000000FA00000000E000E00016
:1000300048FE48FE48002454FE544800E6A8F62A2C
:10004000CE006C92927C12000000C0000000000004
:100050007C82000000827C000000000050E0500024
:1000600010107C1010000005060000000010101099
:10007000000000020000000006081020C0007C8A7A
:1000800092A27C00000082FE02004E9292926200D8
:10009000448292926C00F01010FE1000F292929244
:1000A0008C007C9292928C00808E9090E0006C92FA
:1000B00092926C00649292927C00000024000000F6
:1000C0000002260000000010284400000028282814
:1000D000280000004428100040809A90600046925A
:1000E000AAAA7C007E8888887E00FE9292926C008C
:1000F0007C8282824400FE8282827C00FE92928216
:100100008200FE90908080007E8292925C00FE10C1
:100110001010FE008282FE8282008C8282FC8000AF
:10012000FE101028C600FE0202020200FE4030400F
:10013000FE00FE402010FE007C8282827C00FE9049
:10014000909060007C8286827C00FE8888887600A1
:10015000629292928C008080FE808000FC020202FB
:10016000FC00F8040204F800FE041804FE00C6288F
:100170001028C600E0100E10E000868A92A2C2008D
:100180000000FE828200C020100806008282FE006D
:100190000000204080402000020202020200008095
:1001A00040000000242A2A2A1E00FE2222221C00CF
:1001B0001C22222212001C222222FE001C2A2A2A91
:1001C0001A00107E909080006CB2AAEA8C00FE109B
:1001D00020201E000022BE020000040202BC00001B
:1001E000FE10102846000082FE0200003E201C2067
:1001F0003E003E1020201E001C2222221C007E4AAF
:10020000484830003048484A7E00023E1220100024
:10021000122A2A2A240000FC222204003C020204A2
:100220003E003804020438003C020C023C00221458
:10023000081422007A0A0A0A7C0022260A322200C6
:10024000106C82824400000000EF00004482826C47
:1002500010000010201020000000000040002000CE
:10026000210005220606200021007F220007AED5CE
:1002700080A83CD30040008D14A1C0DA12817FD940
:1002800088DB20A4A6AF11241FBECFE5D2E0DEBFDD
:10029000CDBF10E0A0E6B0E0E4EBFDE002C00590C9
:1002A0000D92A83CB107D9F720E0A8ECB0E001C05E
:1002B0001D92A33EB207E1F78AD07AC5A1CEB7D08E
:1002C0009093CB008093CA00B5D09093C9008093DF
:1002D000C80008951F920F920FB60F9211248F93AA
:1002E0009F93EF93FF9382EC82BFE091CA00F0915D
:1002F000CB00808181608083E091C800F091C900CB
:1003000080819181019691838083FF91EF919F91EC
:100310008F910F900FBE0F901F9018951F920F9204
:100320000FB60F9211248F93A89581B5806581BD7A
:100330008F910F900FBE0F901F901895F894809199
:10034000D00080FF22C08091D0008E7F8093D000AB
:100350008091CE009091CF0093709093CF008093C6
:10036000CE008091CE009091CF00892B71F48091C6
:10037000CC009091CD0001969093CD008093CC005D
:100380008091D00082608093D0007894089580910D
:10039000D00081FF1BC08091D0008D7F8093D00062
:1003A00018D280E690E09093E0008093DF00809187
:1003B000CC009091CD009F938F938EE690E09F9319
:1003C0008F931ED20F900F900F900F900895F89476
:1003D00084B7806284BF88B1806888B980B589603D
:1003E00080BD84B7877F84BF81B5806581BD81B5BD
:1003F000896281BD87B3826087BB83B7846083BF16
:1004000089B7826089BF82EC82BF88B3856088BB70
:1004100087B3856087BB8FEF8FB98AE28DB980EF94
:100420008EB94DDF8CD0789489DFB1DFFDCF80EDC0
:1004300090E008958EEC90E00895CF93C82F6BD193
:1004400080E390E0D0D18CE3BAD1E091D900F09173
:10045000DA009081892F817090FF18C08FE39FD1BF
:10046000E091D900F091DA009081892F817090FF9E
:100470000DC08C2F94D1E091D900F091DA009081D9
:10048000892F817090FF02C05CD181E0CF910895E7
:1004900086D1E091D900F091DA009081892F8170A6
:1004A00090FD81E00895CF93DF9388E99AE39BD193
:1004B000E091D900F091DA0080818D7F8083C0E0E7
:1004C00009C0EC2FF0E0E259FD4F8491B6DF88239C
:1004D00099F1CF5FC831A8F3C0E009C0EC2FF0E07C
:1004E000EA59FD4F8491A9DF882331F1CF5FC830ED
:1004F000A8F311D180E390E076D18CE360D1E09154
:10050000D900F091DA009081892F817090FF14C09A
:1005100080E4BEDF882381F0D0E00AC080E0B8DF4D
:10052000882351F0CF5F01C0C0E0CC23BCF7DF5F70
:10053000D830D0F306D181E0DF91CF910895CF93E9
:1005400045D19093DA008093D900ADDFC82F811197
:1005500015C0E091D900F091DA0080818460808339
:10056000F0D010C0822F90E0FC01E25AFD4FE491E0
:10057000DC01AF52BF4FEC932F5F01C020E0283069
:1005800088F3C1E08C2FCF910895CF92DF92EF9244
:10059000FF920F931F93CF937C018B016A01E0912F
:1005A000D900F091DA0080818D7F8083C0E009C09E
:1005B000F601EC0FF11D808140DF882309F444C06F
:1005C000CF5FC830A8F3F6014481842F90E00696EF
:1005D0008F779927238130E08217930764F4138281
:1005E00085E08483868181508770868387818150EE
:1005F0008770878306C081E0840FF60183834A5F9A
:10060000448389D080E390E0EED08CE3D8D0E091B1
:10061000D900F091DA009081892F817090FF14C089
:1006200080E436DF882381F0C0E007C0EE0DFF1DB7
:1006300084912EDF882341F0CF5FEC2FF0E0E017AC
:10064000F107A0F37ED081E0CF911F910F91FF9031
:10065000EF90DF90CF900895CF93C82F8091DB006B
:1006600080FD04C08091DB0081FF19C08091DB0018
:100670008E7F8093DB008091DB008D7F8093DB0099
:1006800020E00BC0822F90E0FC01E25AFD4FE49184
:10069000DC01AF52BF4FEC932F5F283098F3CA3084
:1006A00099F0CD3089F08C2F90E080979C01220F3B
:1006B000331F820F931F880F991F41ED50E066E0B2
:1006C00070E0825E9F4F61DFCA3029F48091DB00C9
:1006D00081608093DB00CD3029F48091DB00826063
:1006E0008093DB0080E090E0CF910895CF93CDB16F
:1006F000C1600AC084E090E076D0CDB9B29BFECF55
:1007000084E090E070D0CDB9769BF4CF86E090E0A5
:100710006AD0CF91089588B3846088BB84E090E06C
:1007200062D088B38E7F88BB84E090E05CD088B3D1
:100730008B7F88BB88B3816088BB8EB180688EB99F
:10074000089580E88FB988B38E7F88BB88B38460B2
:1007500088BBB29BFECF84E090E045D088B3816037
:1007600088BB84E090E03FD08EB1806A8EB9089556
:1007700088B38B7F88BB8EB1817F80648EB9B6DFF2
:10078000089587B38E7F87BB8EB18E648EB91FB8F4
:10079000ADDF87B3816087BB8FB181700895909181
:1007A000DC009E7F9093DC008FB9E2DFEADF8111ED
:1007B00005C08091DC0081608093DC000895880F83
:1007C0009091DC0091FD8160EADF08958CED90E06E
:1007D0000895B19B04C088B38D7F88BB089588B30A
:1007E000826088BB089509C000000000000000007E
:1007F000000000000000000001970097A9F708958D
:10080000A0E0B0E0E5E0F4E0ACC2AE014B5F5F4FCA
:10081000FA0161917191AF018091DF009091E00048
:1008200002D0E2E0BAC2ABE0B0E0E8E1F4E089C2B5
:100830006C017B018A01FC0117821682838181FF92
:10084000C0C1CE0101963C01F6019381F70193FDF1
:10085000859193FF81917F01882309F4AEC1853290
:1008600039F493FD859193FF81917F01853221F4C5
:10087000B60190E0C1D1E8CF912C212C312CFFE1C1
:10088000F315E0F08B3279F038F4803279F083326E
:10089000A9F4232D206110C08D3259F0803371F4FA
:1008A000232D216009C0832D8260382EE32DE46062
:1008B00022C0F32DF86025C0322E27C037FC2DC092
:1008C00020ED280F2A3088F436FE06C0892D6AE014
:1008D0002FD2922E980E19C0822D6AE029D2222E94
:1008E000280E832D8062382E10C08E3231F436FCF3
:1008F00064C1E32DE0643E2E08C08C3621F4F32D54
:10090000F0683F2E02C0883641F4F70193FD8591CF
:1009100093FF81917F018111B2CF982F9F7D9554D4
:10092000933028F40C5F1F4F2FE329830DC08336CB
:1009300031F0833771F0833509F055C020C0F801DC
:10094000808189830E5F1F4F88248394912C5301EB
:1009500012C02801F2E04F0E511CF801A080B180B6
:1009600036FE03C0692D70E002C06FEF7FEFC50156
:1009700038D14C018201F32DFF773F2E15C028019D
:1009800022E0420E511CF801A080B18036FE03C067
:10099000692D70E002C06FEF7FEFC50117D14C01E8
:1009A000F32DF0683F2E820133FC19C0822D90E0B8
:1009B00088169906A0F4B60180E290E01DD12A9431
:1009C000F5CFF50137FC859137FE81915F01B601C6
:1009D00090E012D121102A9421E0821A910881140A
:1009E000910479F7E1C0843611F0893639F5F801C0
:1009F00037FE07C060817181828193810C5F1F4F38
:100A000008C060817181072E000C880B990B0E5F66
:100A10001F4FF32DFF763F2E97FF09C090958095CD
:100A2000709561957F4F8F4F9F4FF0683F2E2AE062
:100A300030E0A3011DD1882E861844C0853731F4DB
:100A4000232D2F7EB22E2AE030E025C0932D997FF2
:100A5000B92E8F36C1F018F4883579F0AEC08037E2
:100A600019F0883721F0A9C0E92FE061BE2EB4FE4D
:100A70000DC0FB2DF460BF2E09C034FE0AC0292F23
:100A80002660B22E06C028E030E005C020E130E04C
:100A900002C020E132E0F801B7FE07C06081718139
:100AA000828193810C5F1F4F06C06081718180E05D
:100AB00090E00E5F1F4FA301DBD0882E8618FB2D20
:100AC000FF773F2E36FE0DC0232D2E7FA22E8914D8
:100AD00058F434FE0BC032FC09C0832D8E7EA82E44
:100AE00005C0B82CA32C03C0B82C01C0B92CA4FE9F
:100AF0000FC0FE01E80DF11D8081803321F49A2D95
:100B0000997EA92E09C0A2FE06C0B394B39404C076
:100B10008A2D867809F0B394A3FC10C0A0FE06C00D
:100B2000B21480F4280C922C9B180DC0B21458F407
:100B3000B60180E290E060D0B394F8CFB21418F41C
:100B40002B1802C0982C212CA4FE0FC0B60180E304
:100B500090E052D0A2FE16C0A1FC03C088E790E04E
:100B600002C088E590E0B6010CC08A2D867851F06D
:100B7000A1FE02C08BE201C080E2A7FC8DE2B601BB
:100B800090E03AD0891430F4B60180E390E034D09C
:100B90009A94F8CF8A94F301E80DF11D8081B60193
:100BA00090E02AD08110F6CF222009F44DCEB60174
:100BB00080E290E021D02A94F7CFF60186819781D8
:100BC00002C08FEF9FEF2B96E2E1D7C0FC010590AA
:100BD000615070400110D8F7809590958E0F9F1F3F
:100BE0000895FC016150704001900110D8F7809584
:100BF00090958E0F9F1F08950F931F93CF93DF93B0
:100C0000FB01238121FD03C08FEF9FEF2CC022FF4A
:100C100016C046815781248135814217530744F419
:100C2000A081B1819D012F5F3F4F318320838C9341
:100C3000268137812F5F3F4F3783268314C08B0176
:100C4000EC01FB010084F185E02D0995892BE1F68B
:100C5000D80116968D919C911797019617969C93A3
:100C60008E931697CE01DF91CF911F910F9108952A
:100C7000FA01AA27283061F1203191F1E8946F93AD
:100C80006E7F6E5F7F4F8F4F9F4FAF4FB1E040D071
:100C9000B4E03ED0670F781F891F9A1FA11D680F0F
:100CA000791F8A1F911DA11D6A0F711D811D911D44
:100CB000A11D22D009F468943F91062E000C301932
:100CC000000C000C3019305D3193CEF6CF01089541
:100CD000462F4770405D4193B3E00FD0C9F7F6CF80
:100CE000462F4F70405D4A3318F0495D31FD405248
:100CF000419302D0A9F7EACFB4E0A69597958795DE
:100D000077956795BA95C9F70097610571050895BC
:100D10009B01AC010A2E0694579547953795279568
:100D2000BA95C9F7620F731F841F951FA01D089500
:100D3000002480FD060E660F11F08695D1F7802DF8
:100D400008952F923F924F925F926F927F928F926F
:100D50009F92AF92BF92CF92DF92EF92FF920F934A
:100D60001F93CF93DF93CDB7DEB7CA1BDB0B0FB654
:100D7000F894DEBF0FBECDBF09942A883988488811
:100D80005F846E847D848C849B84AA84B984C884A7
:100D9000DF80EE80FD800C811B81AA81B981CE0F9E
:100DA000D11D0FB6F894DEBF0FBECDBFED01089583
:040DB000F894FFCFE5
:100DB40000000002000000002C0300000000496E47
:100DC4006372656465626C79206C6F6E672074650C
:100DD400787420666F7220746865205445535449B2
:100DE4004E4720637572736F7220706F73697469F4
:100DF4006F6E206F6E207468652074696E7920535D
:100E040053443133313520646973706C61792C201B
:080E14007365633A25640A00CE
:00000001FF
