:1000000020C03AC039C038C037C042C035C034C043
:1000100033C032C031C030C05FC02EC02DC03F06DB
:100020005B4F666D7D077F6F8000041064002800C1
:100030006806280028006806280003030302280C2D
:10004000018011241FBECFE5D2E0DEBFCDBF10E09E
:10005000A0E6B0E0E6EDFCE002C005900D92AA3704
:10006000B107D9F720E0AAE7B0E001C01D92AE3891
:10007000B207E1F7DBD02DC6C3CF09D190937D0045
:1000800080937C0007D190937B0080937A00089541
:100090001F920F920FB60F9211248F939F93EF939D
:1000A000FF9382EC82BFE0917C00F0917D00808123
:1000B00081608083E0917A00F0917B008081918162
:1000C000019691838083FF91EF919F918F910F9083
:1000D0000FBE0F901F9018951F920F920FB60F92A0
:1000E00011248F93A89581B5806581BD8F910F9064
:1000F0000FBE0F901F901895F8948091820080FF9A
:1001000022C0809182008E7F809382008091800047
:1001100090918100937090938100809380008091F2
:10012000800090918100892B71F480917E009091E4
:100130007F00019690937F0080937E0080918200E3
:10014000826080938200789408958091820081FF7C
:100150006CC0809182008D7F80938200B7D284E64C
:1001600090E090938B0080938A0080917E00909124
:100170007F009F938F9382E790E09F938F93D1D2DC
:1001800080917E0090917F0068EE73E0B6D2CB0143
:100190006AE070E0B2D28093600080917E0090911E
:1001A0007F000F900F900F900F90883E934018F4AF
:1001B0008BE08093600080917E0090917F0064E6E8
:1001C00070E09BD2CB016AE070E097D2809361002F
:1001D00080917E0090917F008436910518F48BE029
:1001E0008093610080917E0090917F002AE030E052
:1001F000B90183D2CB01B90180D280936200809192
:100200007E0090917F000A9718F48BE08093620043
:1002100080917E0090917F006AE070E06ED28093C2
:10022000630060E080E690E0B3D00895F89484B76E
:10023000806284BF88B1806888B980B5896080BDDC
:1002400084B7877F84BF81B5806581BD81B58962B0
:1002500081BD87B3826087BB83B7846083BF89B762
:10026000826089BF82EC82BF88B3856088BB87B318
:10027000856087BB8FEF8FB98AE28DB980EF8EB929
:10028000FCDEA9D16BD0789437DF5FDFFDCF82E849
:1002900090E0089580E890E0089588B3806188BB7D
:1002A00088B3886088BB82E090E01AD288B3877FE9
:1002B00088BB82E090E014D20895CF93DF93D82FCB
:1002C000C0E017C088B38F7E88BBD0FF04C088B35E
:1002D000886088BB03C088B3877F88BBD69583E0DE
:1002E00090E0FED188B3806188BB83E090E0F8D1D4
:1002F000CF5FC83038F388B38F7E88BB85E090E04D
:10030000EFD187B3877F87BBB39909C088B380617A
:1003100088BB82E090E0E4D188B38F7E88BB87B34E
:10032000886087BBDF91CF91089588B38F7E88BBAB
:1003300082E090E0D5D188B3877F88BB82E090E0EF
:10034000CFD188B3806188BB82E090E0C9D188B307
:10035000886088BB82E090E0C3D10895CF9387B3D3
:10036000886187BB9ADF80E4A8DFDFDF96DF80EC5F
:10037000A4DFC0E003C080E0A0DFCF5FC430D8F3CB
:10038000D4DF8BDF8AE899DFD0DF80E0CF9108955A
:10039000EF92FF920F931F93CF93DF937C01D62FA1
:1003A0007CDF80E48ADFC1DF78DF80EC86DFC0E0BD
:1003B00019C087010F5F1F4FD701EC91F0E0E25E9B
:1003C000FF4F84912C2F30E04D2F0D2E000C550B3C
:1003D0002417350721F4E8E2F0E0E4918E2B6DDF7D
:1003E000CF5F7801C43028F3A0DFDF91CF911F9158
:1003F0000F91FF90EF9008950F931F93CF93DF938A
:10040000C82F8B01E0918300F091840080818D7F63
:100410008083DC2FD07F8D2F8C603ED18D2F886024
:100420003BD1D0E0C295D295D07FDC27C07FDC27BE
:100430008C2F8C6031D18C2F88602ED1C80150D187
:10044000DF91CF911F910F910895CF93DF93C82F24
:10045000E0918300F091840080818D7F8083DC2F88
:10046000D07F8D2F8D6018D18D2F896015D1D0E070
:10047000C295D295D07FDC27C07FDC278C2F8D6082
:100480000BD18C2F896008D188E290E029D1DF91CF
:10049000CF910895FF920F931F93CF93DF9388E935
:1004A0009AE31ED1E0918300F091840080818D7FDA
:1004B0008083AED087E200D1F12C2EC0CF2DD0E0CA
:1004C0008E01065C1F4FF8018491807F8C60E4D020
:1004D000F8018491807F8860DFD0F801849190E0FA
:1004E00082959295907F9827807F98278C60D4D0B2
:1004F000F801849190E082959295907F9827807F73
:1005000098278860C9D0FE01EE0FFF1FE65DFF4F00
:1005100085919491E5D0F394F7E0FF1508F0CECFE4
:100520008DD0DF91CF911F910F91FF900895CF93C0
:10053000C82FE0918300F091840080818D7F8083BB
:100540008091860080FD04C08091860081FF18C0E4
:10055000809186008E7F80938600809186008D7FBB
:100560008093860055D087E2A7D068E676E081E0E8
:1005700043DF68E270E080E83FDF60D010928500E2
:10058000CA30B9F0CD30A9F043D087E295D0809140
:100590008500803130F068E270E080EC2DDF109251
:1005A00085008C2F52DF4AD0809185008F5F809329
:1005B0008500CA3029F4809186008160809386008E
:1005C000CD3029F48091860082608093860080E09F
:1005D00090E0CF91089577D090938400809383002A
:1005E00059DF81E00895CF93CDB1C1600AC081E0A9
:1005F00090E076D0CDB9B29BFECF81E090E070D094
:10060000CDB9769BF4CF81E090E06AD0CF91089588
:1006100088B3846088BB81E090E062D088B38E7F2D
:1006200088BB81E090E05CD088B38B7F88BB88B3C7
:10063000816088BB8EB180688EB9089580E88FB9DB
:1006400088B38E7F88BB88B3846088BBB29BFECFA3
:1006500081E090E045D088B3816088BB81E090E084
:100660003FD08EB1806A8EB9089588B38B7F88BBE6
:100670008EB1817F80648EB9B6DF089587B38E7F97
:1006800087BB8EB18E648EB91FB8ADDF87B3816032
:1006900087BB8FB181700895909187009E7F909362
:1006A00087008FB9E2DFEADF811105C08091870002
:1006B0008160809387000895880F9091870091FD55
:1006C0008160EADF089587E890E00895B19B04C057
:1006D00088B38D7F88BB089588B3826088BB0895F6
:1006E00009C0000000000000000000000000000041
:1006F000000001970097A9F70895AA1BBB1B51E1C1
:1007000007C0AA1FBB1FA617B70710F0A61BB70B81
:10071000881F991F5A95A9F780959095BC01CD0126
:100720000895A0E0B0E0E6E9F3E0ACC2AE014B5FB3
:100730005F4FFA0161917191AF0180918A009091B0
:100740008B0002D0E2E0BAC2ABE0B0E0E9EAF3E04D
:1007500089C26C017B018A01FC01178216828381A8
:1007600081FFC0C1CE0101963C01F6019381F701E2
:1007700093FD859193FF81917F01882309F4AEC198
:10078000853239F493FD859193FF81917F01853204
:1007900021F4B60190E0C1D1E8CF912C212C312C6D
:1007A000FFE1F315E0F08B3279F038F4803279F024
:1007B0008332A9F4232D206110C08D3259F080338B
:1007C00071F4232D216009C0832D8260382EE32D22
:1007D000E46022C0F32DF86025C0322E27C037FC1C
:1007E0002DC020ED280F2A3088F436FE06C0892D52
:1007F0006AE02FD2922E980E19C0822D6AE029D27B
:10080000222E280E832D8062382E10C08E3231F4B5
:1008100036FC64C1E32DE0643E2E08C08C3621F422
:10082000F32DF0683F2E02C0883641F4F70193FDA6
:10083000859193FF81917F018111B2CF982F9F7D88
:100840009554933028F40C5F1F4F2FE329830DC07C
:10085000833631F0833771F0833509F055C020C0FD
:10086000F801808189830E5F1F4F88248394912C27
:10087000530112C02801F2E04F0E511CF801A08074
:10088000B18036FE03C0692D70E002C06FEF7FEFCC
:10089000C50138D14C018201F32DFF773F2E15C0E1
:1008A000280122E0420E511CF801A080B18036FEE2
:1008B00003C0692D70E002C06FEF7FEFC50117D153
:1008C0004C01F32DF0683F2E820133FC19C0822DBC
:1008D00090E088169906A0F4B60180E290E01DD160
:1008E0002A94F5CFF50137FC859137FE81915F01A0
:1008F000B60190E012D121102A9421E0821A9108C9
:100900008114910479F7E1C0843611F0893639F504
:10091000F80137FE07C060817181828193810C5F8D
:100920001F4F08C060817181072E000C880B990B46
:100930000E5F1F4FF32DFF763F2E97FF09C0909556
:100940008095709561957F4F8F4F9F4FF0683F2E38
:100950002AE030E0A3011DD1882E861844C08537D7
:1009600031F4232D2F7EB22E2AE030E025C0932DC6
:10097000997FB92E8F36C1F018F4883579F0AEC062
:10098000803719F0883721F0A9C0E92FE061BE2E29
:10099000B4FE0DC0FB2DF460BF2E09C034FE0AC0AA
:1009A000292F2660B22E06C028E030E005C020E1E5
:1009B00030E002C020E132E0F801B7FE07C06081FC
:1009C0007181828193810C5F1F4F06C060817181AC
:1009D00080E090E00E5F1F4FA301DBD0882E8618C9
:1009E000FB2DFF773F2E36FE0DC0232D2E7FA22E2E
:1009F000891458F434FE0BC032FC09C0832D8E7E5E
:100A0000A82E05C0B82CA32C03C0B82C01C0B92C4B
:100A1000A4FE0FC0FE01E80DF11D8081803321F49A
:100A20009A2D997EA92E09C0A2FE06C0B394B39454
:100A300004C08A2D867809F0B394A3FC10C0A0FEF0
:100A400006C0B21480F4280C922C9B180DC0B2146E
:100A500058F4B60180E290E060D0B394F8CFB214BD
:100A600018F42B1802C0982C212CA4FE0FC0B6013C
:100A700080E390E052D0A2FE16C0A1FC03C088E73C
:100A800090E002C088E590E0B6010CC08A2D86781F
:100A900051F0A1FE02C08BE201C080E2A7FC8DE212
:100AA000B60190E03AD0891430F4B60180E390E0CA
:100AB00034D09A94F8CF8A94F301E80DF11D808127
:100AC000B60190E02AD08110F6CF222009F44DCE55
:100AD000B60180E290E021D02A94F7CFF60186811A
:100AE000978102C08FEF9FEF2B96E2E1D7C0FC0108
:100AF0000590615070400110D8F7809590958E0F49
:100B00009F1F0895FC016150704001900110D8F7BB
:100B1000809590958E0F9F1F08950F931F93CF93ED
:100B2000DF93FB01238121FD03C08FEF9FEF2CC0DA
:100B300022FF16C046815781248135814217530711
:100B400044F4A081B1819D012F5F3F4F3183208309
:100B50008C93268137812F5F3F4F3783268314C0C4
:100B60008B01EC01FB010084F185E02D0995892BB7
:100B7000E1F6D80116968D919C91179701961796DC
:100B80009C938E931697CE01DF91CF911F910F9179
:100B90000895FA01AA27283061F1203191F1E894F3
:100BA0006F936E7F6E5F7F4F8F4F9F4FAF4FB1E060
:100BB00040D0B4E03ED0670F781F891F9A1FA11D57
:100BC000680F791F8A1F911DA11D6A0F711D811D5C
:100BD000911DA11D22D009F468943F91062E000CAE
:100BE0003019000C000C3019305D3193CEF6CF0176
:100BF0000895462F4770405D4193B3E00FD0C9F789
:100C0000F6CF462F4F70405D4A3318F0495D31FDF5
:100C10004052419302D0A9F7EACFB4E0A695979548
:100C2000879577956795BA95C9F70097610571051E
:100C300008959B01AC010A2E069457954795379568
:100C40002795BA95C9F7620F731F841F951FA01DC2
:100C50000895002480FD060E660F11F08695D1F7E9
:100C6000802D08952F923F924F925F926F927F92C4
:100C70008F929F92AF92BF92CF92DF92EF92FF92AC
:100C80000F931F93CF93DF93CDB7DEB7CA1BDB0B58
:100C90000FB6F894DEBF0FBECDBF09942A883988FD
:100CA00048885F846E847D848C849B84AA84B98404
:100CB000C884DF80EE80FD800C811B81AA81B98110
:100CC000CE0FD11D0FB6F894DEBF0FBECDBFED0124
:060CD0000895F894FFCF27
:100CD6000B0B0B0B00000002000000009702000047
:0A0CE60000007365633A25640A00FC
:00000001FF
