:100000001AC029C028C027C026C031C024C023C0C0
:1000100022C021C020C01FC04EC01DC01CC0041083
:1000200064002800680628002800680628000303EA
:100030000302280C018011241FBECFE5D2E0DEBFF1
:10004000CDBF20E0A0E6B0E001C01D92AA36B20705
:10005000E1F775D064C1D4CFA2D0909363008093B0
:100060006200A0D0909361008093600008951F9279
:100070000F920FB60F9211248F939F93EF93FF93DC
:1000800082EC82BFE0916200F09163008081816028
:100090008083E0916000F091610080819181019600
:1000A00091838083FF91EF919F918F910F900FBE6D
:1000B0000F901F9018951F920F920FB60F92112458
:1000C0008F93A89581B5806581BD8F910F900FBEEC
:1000D0000F901F901895F8948091680080FF22C0BF
:1000E000809168008E7F8093680080916600909177
:1000F000670093709093670080936600809166001C
:1001000090916700892B71F4809164009091650053
:1001100001969093650080936400809168008260EE
:1001200080936800789408958091680081FF06C0EC
:10013000809168008D7F80936800D8D00895F894EE
:1001400084B7806284BF88B1806888B980B58960CF
:1001500080BD84B7877F84BF81B5806581BD81B54F
:10016000896281BD87B3826087BB83B7846083BFA8
:1001700089B7826089BF82EC82BF88B3856088BB03
:1001800087B3856087BB8FEF8FB98AE28DB980EE28
:100190008EB962DF0AD078949EDFC6DFFDCF88E695
:1001A00090E0089586E690E00895FF920F931F93E4
:1001B000CF93DF9388E99AE3A3D053D08EE490D015
:1001C000F12C2EC0CF2DD0E08E01025D1F4FF80123
:1001D0008491807F8C6081D0F8018491807F8860D9
:1001E0007CD0F801849190E082959295907F982739
:1001F000807F98278C6071D0F801849190E082957F
:100200009295907F9827807F9827886066D0FE011E
:10021000EE0FFF1FE25EFF4F8591949171D0F39432
:10022000F7E0FF1508F0CECF36D0DF91CF911F91C8
:100230000F91FF9008958DB181600DC00000000006
:100240000000000000008DB9B29BFECF000000004E
:10025000000000008DB9769BF1CF86E090E050D091
:10026000089588B3846088BB00000000000000008F
:100270000000000088B38E7F88BB000000000000F3
:10028000000088B38B7F88BB88B3816088BB8EB148
:1002900080688EB9089580E88FB988B38E7F88BB57
:1002A00088B3846088BBB29BFECF000000000000D2
:1002B000000088B3816088BB0000000000000000DF
:1002C0008EB180688EB9089588B38B7F88BB8EB15C
:1002D000817F80648EB9AFDF08958FB9F5DF08950F
:1002E0009091690091FD8160F8DF0895B19B04C091
:1002F00088B38D7F88BB089588B3826088BB0895DA
:100300000BC0000000000000000000000000000022
:100310000000000000000197009799F70895F894F5
:02032000FFCF0D
:00000001FF
