:10000000A2C4BCC4BBC4BAC4B9C4C4C4B7C4B6C413
:10001000B5C4B4C4B3C4B2C4E1C4B0C4AFC4000076
:1000200000000000000000000000000000000000D0
:1000300000000000000000000000000000000000C0
:100040000000CCFFCCFF000000000000000000001A
:1000500000000000000000FC00FC0000000000FCAC
:1000600000FC00000000C030C030FEFFFEFFC030CA
:10007000C030FEFFFEFFC030C03000000000300C7A
:10008000300C30333033FEFFFEFF30333033C030BE
:10009000C030000000003CFC3CFCC0CCC0CC3CFFAD
:1000A0003CFFCC0CCC0CFCF0FCF000000000F03C61
:1000B000F03C0CC30CC30CC30CC3F03FF03F0C036B
:1000C0000C0300000000000000000000000000F031
:1000D00000F0000000000000000000000000000030
:1000E000000000000000FC3FFC3F03C003C0000014
:1000F0000000000000000000000003C003C0FC3F3F
:10010000FC3F0000000000000000000000000000B4
:100110000000000000000033003300FC00FC00334E
:100120000033000000000003000300030003F03F61
:10013000F03F000300030003000300000000000084
:100140000000330033003C003C00000000000000D1
:100150000000000000000000000000030003000396
:100160000003000300030000000000000000000086
:1001700000000C000C000000000000000000000067
:100180000000000000003C003C00C000C000000374
:100190000003000C000C00F000F000000000F03F35
:1001A000F03FCCC0CCC00CC30CC30CCC0CCCF03F8B
:1001B000F03F00000000000000000CC00CC0FCFF7D
:1001C000FCFF0C000C000000000000000000FC30F0
:1001D000FC300CC30CC30CC30CC30CC30CC30C3CD1
:1001E0000C3C00000000303030300CC00CC00CC3A0
:1001F0000CC30CC30CC3F03CF03C0000000000FF3B
:1002000000FF0003000300030003FCFFFCFF0003EA
:100210000003000000000CFF0CFF0CC30CC30CC358
:100220000CC30CC30CC3F0C0F0C000000000F03FD2
:10023000F03F0CC30CC30CC30CC30CC30CC3F0C005
:10024000F0C00000000000C000C0FCC0FCC000C343
:1002500000C300C300C300FC00FC00000000F03C31
:10026000F03C0CC30CC30CC30CC30CC30CC3F03C5C
:10027000F03C00000000303C303C0CC30CC30CC30D
:100280000CC30CC30CC3F03FF03F000000000000A3
:10029000000000000000300C300C000000000000E6
:1002A000000000000000000000000C000C003C0CEE
:1002B0003C0C0000000000000000000000000000F6
:1002C000000000030003C00CC00C303030300000D0
:1002D00000000000000000000000C00CC00CC00CBA
:1002E000C00CC00CC00CC00CC00C00000000000012
:1002F000000030303030C00CC00C000300030000A0
:100300000000000000000030003000C000C0CCC37E
:10031000CCC300C300C3003C003C000000003C30E4
:100320003C300CC30CC3CCCCCCCCCCCCCCCCF03F34
:10033000F03F00000000FC3FFC3FC0C0C0C0C0C098
:10034000C0C0C0C0C0C0FC3FFC3F00000000FCFFBC
:10035000FCFF0CC30CC30CC30CC30CC30CC3F03C9C
:10036000F03C00000000F03FF03F0CC00CC00CC09F
:100370000CC00CC00CC03030303000000000FCFF5E
:10038000FCFF0CC00CC00CC00CC00CC00CC0F03F7B
:10039000F03F00000000FCFFFCFF0CC30CC30CC3CB
:1003A0000CC30CC00CC00CC00CC000000000FCFF53
:1003B000FCFF00C300C300C300C300C000C000C0F6
:1003C00000C000000000F03FF03F0CC00CC00CC3A8
:1003D0000CC30CC30CC3F033F03300000000FCFF6F
:1003E000FCFF000300030003000300030003FCFF05
:1003F000FCFF000000000CC00CC00CC00CC0FCFFD7
:10040000FCFF0CC00CC00CC00CC000000000F0C011
:10041000F0C00CC00CC00CC00CC0F0FFF0FF00C05E
:1004200000C000000000FCFFFCFF0003000300030D
:100430000003C00CC00C3CF03CF000000000FCFFCE
:10044000FCFF0C000C000C000C000C000C000C005D
:100450000C0000000000FCFFFCFF00300030000F2B
:10046000000F00300030FCFFFCFF00000000FCFF2C
:10047000FCFF00300030000C000C00030003FCFF08
:10048000FCFF00000000F03FF03F0CC00CC00CC0AF
:100490000CC00CC00CC0F03FF03F00000000FCFF9F
:1004A000FCFF00C300C300C300C300C300C3003C83
:1004B000003C00000000F03FF03F0CC00CC03CC00E
:1004C0003CC00CC00CC0F03FF03F00000000FCFF3F
:1004D000FCFFC0C0C0C0C0C0C0C0C0C0C0C03C3FA6
:1004E0003C3F000000000C3C0C3C0CC30CC30CC394
:1004F0000CC30CC30CC3F0C0F0C00000000000C06F
:1005000000C000C000C0FCFFFCFF00C000C000C075
:1005100000C000000000F0FFF0FF0C000C000C0019
:100520000C000C000C00F0FFF0FF00000000C0FF0A
:10053000C0FF300030000C000C0030003000C0FF65
:10054000C0FF00000000FCFFFCFF30003000C003D3
:10055000C00330003000FCFFFCFF000000003CF056
:100560003CF0C00CC00C00030003C00CC00C3CF0FD
:100570003CF00000000000FC00FC00030003FC0055
:10058000FC000003000300FC00FC000000003CC075
:100590003CC0CCC0CCC00CC30CC30CCC0CCC0CF0FD
:1005A0000CF0000000000000000000000000FCFF54
:1005B000FCFF0CC00CC00CC00CC00000000000F020
:1005C00000F0000C000C00030003C000C0003C0061
:1005D0003C0000000000000000000CC00CC00CC07B
:1005E0000CC0FCFFFCFF0000000000000000000C3D
:1005F000000C0030003000C000C000300030000CA3
:10060000000C000000000C000C000C000C000C00A2
:100610000C000C000C000C000C000000000000009E
:10062000000000C000C00003000300000000000044
:10063000000000000000300C300CCC0CCC0CCC0CBA
:10064000CC0CCC0CCC0CFC03FC0300000000FCFF29
:10065000FCFF0C0C0C0C0C0C0C0C0C0C0C0CF0031C
:10066000F00300000000F003F0030C0C0C0C0C0C69
:100670000C0C0C0C0C0C0C030C0300000000F00321
:10068000F0030C0C0C0C0C0C0C0C0C0C0C0CFCFFEC
:10069000FCFF00000000F003F003CC0CCC0CCC0CF1
:1006A000CC0CCC0CCC0CCC03CC0300000000000321
:1006B0000003FC3FFC3F00C300C300C300C300C0F5
:1006C00000C000000000F03CF03C0CCF0CCFCCCCC4
:1006D000CCCCCCFCCCFCF0C0F0C000000000FCFF97
:1006E000FCFF00030003000C000C000C000CFC03DA
:1006F000FC0300000000000000000C0C0C0CFCCF00
:10070000FCCF0C000C0000000000000000003000D6
:1007100030000C000C000C000C00F0CFF0CF0000FB
:10072000000000000000FCFFFCFF000300030003CA
:100730000003C00CC00C3C303C3000000000000046
:1007400000000CC00CC0FCFFFCFF0C000C000C00F7
:100750000C0000000000FC0FFC0F000C000CFC0360
:10076000FC03000C000CFC0FFC0F00000000FC0F51
:10077000FC0F00030003000C000C000C000CFC0339
:10078000FC0300000000F003F0030C0C0C0C0C0C3C
:100790000C0C0C0C0C0CF003F00300000000FC3FF0
:1007A000FC3FCC30CC30C030C030C030C030000F47
:1007B000000F00000000000F000FC030C030C0303C
:1007C000C030CC30CC30FC3FFC3F000000000C00BF
:1007D0000C00FC0FFC0F0C030C03000C000C0003BE
:1007E0000003000000000C030C03CC0CCC0CCC0C60
:1007F000CC0CCC0CCC0C300C300C000000000000F9
:100800000000F0FFF0FF0C0C0C0C0C0C0C0C30007A
:10081000300000000000F00FF00F0C000C000C0086
:100820000C0030003000FC0FFC0F00000000C00F77
:10083000C00F300030000C000C0030003000C00F42
:10084000C00F00000000F00FF00F0C000C00F000D3
:10085000F0000C000C00F00FF00F000000000C0C7A
:100860000C0C30033003C000C000300330030C0C0C
:100870000C0C00000000CC3FCC3FCC00CC00CC00E6
:10088000CC00CC00CC00F03FF03F000000000C0C8E
:100890000C0C3C0C3C0CCC0CCC0C0C0F0C0F0C0CB2
:1008A0000C0C0000000000030003F03CF03C0CC006
:1008B0000CC00CC00CC03030303000000000000014
:1008C00000000000000000000000FCFFFCFF000032
:1008D000000000000000303030300CC00CC00CC0F4
:1008E0000CC0F03CF03C00030003000000000000DE
:1008F000000000030003000C000C00030003000CC8
:10090000000C0000000000000000000000000000DB
:10091000000000000010002800100000000020016E
:1009200021000B220506200021007F220007AED502
:1009300080A83CD30040008D14A1C0DA12817FD979
:1009400088DB20A4A6AF11241FBECFE5D2E0DEBF16
:10095000CDBF10E0A0E6B0E0ECE7F4E102C0059006
:100960000D92A637B107D9F720E0A6E7B0E001C0A5
:100970001D92A139B207E1F78AD07EC541CBB7D02D
:100980009093790080937800B5D09093770080930E
:10099000760008951F920F920FB60F9211248F9335
:1009A0009F93EF93FF9382EC82BFE0917800F091E8
:1009B0007900808181608083E0917600F0917700FA
:1009C00080819181019691838083FF91EF919F9126
:1009D0008F910F900FBE0F901F9018951F920F923E
:1009E0000FB60F9211248F93A89581B5806581BDB4
:1009F0008F910F900FBE0F901F901895F8948091D3
:100A00007E0080FF22C080917E008E7F80937E00DA
:100A100080917C0090917D00937090937D008093F5
:100A20007C0080917C0090917D00892B71F48091F5
:100A30007A0090917B00019690937B0080937A00DE
:100A400080917E00826080937E00789408958091EA
:100A50007E0081FF1BC080917E008D7F80937E0091
:100A60001CD280E690E090938E0080938D00809160
:100A70007A0090917B009F938F938EE690E09F93F6
:100A80008F9322D20F900F900F900F900895F894AB
:100A900084B7806284BF88B1806888B980B5896076
:100AA00080BD84B7877F84BF81B5806581BD81B5F6
:100AB000896281BD87B3826087BB83B7846083BF4F
:100AC00089B7826089BF82EC82BF88B3856088BBAA
:100AD00087B3856087BB8FEF8FB98AE28DB980EFCE
:100AE0008EB94DDF8CD0789489DFB1DFFDCF8EE7F2
:100AF00090E008958CE790E00895CF93C82F6FD1D0
:100B000080E390E0D4D18CE3BED1E0918700F091F6
:100B100088009081892F817090FF18C08FE3A3D146
:100B2000E0918700F09188009081892F817090FF7B
:100B30000DC08C2F98D1E0918700F09188009081B2
:100B4000892F817090FF02C060D181E0CF9108951C
:100B50008AD1E0918700F09188009081892F81707F
:100B600090FD81E00895CF93DF9388E99AE39FD1C8
:100B7000E0918700F091880080818D7F8083C0E0C4
:100B800009C0EC2FF0E0E25DF64F8491B6DF8823D8
:100B900099F1CF5FC831A8F3C0E009C0EC2FF0E0B5
:100BA000EA5DF64F8491A9DF882331F1CF5FC83029
:100BB000A8F315D180E390E07AD18CE364D1E09181
:100BC0008700F09188009081892F817090FF14C078
:100BD00080E4BEDF882381F0D0E00AC080E0B8DF87
:100BE000882351F0CF5F01C0C0E0CC23BCF7DF5FAA
:100BF000D830D0F30AD181E0DF91CF910895CF931F
:100C000049D19093880080938700ADDFC82F811170
:100C100015C0E0918700F091880080818460808316
:100C2000F4D010C0822F90E0FC01E25EF64FE49118
:100C3000DC01A158BF4FEC932F5F01C020E02830AA
:100C400088F3C1E08C2FCF910895CF92DF92EF927D
:100C5000FF920F931F93CF937C018B016A01E09168
:100C60008700F091880080818D7F8083C0E009C07B
:100C7000F601EC0FF11D808140DF882309F444C0A8
:100C8000CF5FC830A8F3F6014481842F90E00C9622
:100C90008F779927238130E08217930764F41382BA
:100CA0008BE084838681825087708683878182501F
:100CB0008770878306C081E0840FF6018383445FD9
:100CC00044838DD080E390E0F2D08CE3DCD0E091DF
:100CD0008700F09188009081892F817090FF14C067
:100CE00080E436DF882381F0C0E007C0EE0DFF1DF1
:100CF00084912EDF882341F0CF5FEC2FF0E0E017E6
:100D0000F107A0F382D081E0CF911F910F91FF9066
:100D1000EF90DF90CF900895CF93C82F80918900F6
:100D200080FD04C08091890081FF19C080918900F5
:100D30008E7F80938900809189008D7F80938900C8
:100D400020E00BC0822F90E0FC01E25EF64FE491C0
:100D5000DC01A158BF4FEC932F5F283098F3CA30C5
:100D6000B9F0CD30A9F08C2F90E080979C01220F34
:100D7000331F820F931F880F991F880F991F880FA9
:100D8000991F4FE750E068E170E0825E9F4F5DDFA2
:100D9000CA3029F480918900816080938900CD3028
:100DA00029F48091890082608093890080E090E03E
:100DB000CF910895CF93CDB1C1600AC084E090E097
:100DC00076D0CDB9B29BFECF84E090E070D0CDB9A3
:100DD000769BF4CF86E090E06AD0CF91089588B3F7
:100DE000846088BB84E090E062D088B38E7F88BB4B
:100DF00084E090E05CD088B38B7F88BB88B381604F
:100E000088BB8EB180688EB9089580E88FB988B3A9
:100E10008E7F88BB88B3846088BBB29BFECF84E0A2
:100E200090E045D088B3816088BB84E090E03FD0FB
:100E30008EB1806A8EB9089588B38B7F88BB8EB1DE
:100E4000817F80648EB9B6DF089587B38E7F87BBBC
:100E50008EB18E648EB91FB8ADDF87B3816087BB5A
:100E60008FB18170089590918A009E7F90938A003F
:100E70008FB9E2DFEADF811105C080918A008160CD
:100E800080938A000895880F90918A0091FD816077
:100E9000EADF08958AE890E00895B19B04C088B322
:100EA0008D7F88BB089588B3826088BB089509C090
:100EB0000000000000000000000000000000000032
:100EC00001970097A9F70895A0E0B0E0E9E6F7E000
:100ED000ACC2AE014B5F5F4FFA0161917191AF01FE
:100EE00080918D0090918E0002D0E2E0BAC2ABE01A
:100EF000B0E0ECE7F7E089C26C017B018A01FC01FC
:100F000017821682838181FFC0C1CE0101963C0108
:100F1000F6019381F70193FD859193FF81917F0104
:100F2000882309F4AEC1853239F493FD859193FF8E
:100F300081917F01853221F4B60190E0C1D1E8CFE3
:100F4000912C212C312CFFE1F315E0F08B3279F05C
:100F500038F4803279F08332A9F4232D206110C057
:100F60008D3259F0803371F4232D216009C0832D17
:100F70008260382EE32DE46022C0F32DF86025C096
:100F8000322E27C037FC2DC020ED280F2A3088F4E0
:100F900036FE06C0892D6AE02FD2922E980E19C017
:100FA000822D6AE029D2222E280E832D8062382ECF
:100FB00010C08E3231F436FC64C1E32DE0643E2E65
:100FC00008C08C3621F4F32DF0683F2E02C088361D
:100FD00041F4F70193FD859193FF81917F01811188
:100FE000B2CF982F9F7D9554933028F40C5F1F4FFC
:100FF0002FE329830DC0833631F0833771F08335B9
:1010000009F055C020C0F801808189830E5F1F4F11
:1010100088248394912C530112C02801F2E04F0ED2
:10102000511CF801A080B18036FE03C0692D70E02C
:1010300002C06FEF7FEFC50138D14C018201F32D63
:10104000FF773F2E15C0280122E0420E511CF80107
:10105000A080B18036FE03C0692D70E002C06FEF42
:101060007FEFC50117D14C01F32DF0683F2E8201AF
:1010700033FC19C0822D90E088169906A0F4B601C1
:1010800080E290E01DD12A94F5CFF50137FC8591DF
:1010900037FE81915F01B60190E012D121102A94B0
:1010A00021E0821A91088114910479F7E1C0843615
:1010B00011F0893639F5F80137FE07C0608171817A
:1010C000828193810C5F1F4F08C060817181072E60
:1010D000000C880B990B0E5F1F4FF32DFF763F2EF0
:1010E00097FF09C090958095709561957F4F8F4FC0
:1010F0009F4FF0683F2E2AE030E0A3011DD1882EDB
:10110000861844C0853731F4232D2F7EB22E2AE075
:1011100030E025C0932D997FB92E8F36C1F018F499
:10112000883579F0AEC0803719F0883721F0A9C032
:10113000E92FE061BE2EB4FE0DC0FB2DF460BF2E82
:1011400009C034FE0AC0292F2660B22E06C028E04E
:1011500030E005C020E130E002C020E132E0F801DB
:10116000B7FE07C060817181828193810C5F1F4F40
:1011700006C06081718180E090E00E5F1F4FA30187
:10118000DBD0882E8618FB2DFF773F2E36FE0DC054
:10119000232D2E7FA22E891458F434FE0BC032FC6E
:1011A00009C0832D8E7EA82E05C0B82CA32C03C0A9
:1011B000B82C01C0B92CA4FE0FC0FE01E80DF11D32
:1011C0008081803321F49A2D997EA92E09C0A2FE38
:1011D00006C0B394B39404C08A2D867809F0B39402
:1011E000A3FC10C0A0FE06C0B21480F4280C922C00
:1011F0009B180DC0B21458F4B60180E290E060D0A4
:10120000B394F8CFB21418F42B1802C0982C212CE8
:10121000A4FE0FC0B60180E390E052D0A2FE16C03B
:10122000A1FC03C088E790E002C088E590E0B60129
:101230000CC08A2D867851F0A1FE02C08BE201C05D
:1012400080E2A7FC8DE2B60190E03AD0891430F438
:10125000B60180E390E034D09A94F8CF8A94F301F9
:10126000E80DF11D8081B60190E02AD08110F6CF03
:10127000222009F44DCEB60180E290E021D02A94DC
:10128000F7CFF6018681978102C08FEF9FEF2B96F3
:10129000E2E1D7C0FC010590615070400110D8F721
:1012A000809590958E0F9F1F0895FC0161507040AE
:1012B00001900110D8F7809590958E0F9F1F08958B
:1012C0000F931F93CF93DF93FB01238121FD03C075
:1012D0008FEF9FEF2CC022FF16C0468157812481DB
:1012E00035814217530744F4A081B1819D012F5FDE
:1012F0003F4F318320838C93268137812F5F3F4F6F
:101300003783268314C08B01EC01FB010084F18537
:10131000E02D0995892BE1F6D80116968D919C91C7
:101320001797019617969C938E931697CE01DF918F
:10133000CF911F910F910895FA01AA27283061F1EA
:10134000203191F1E8946F936E7F6E5F7F4F8F4FE6
:101350009F4FAF4FB1E040D0B4E03ED0670F781F51
:10136000891F9A1FA11D680F791F8A1F911DA11D3A
:101370006A0F711D811D911DA11D22D009F4689471
:101380003F91062E000C3019000C000C3019305D16
:101390003193CEF6CF010895462F4770405D4193BB
:1013A000B3E00FD0C9F7F6CF462F4F70405D4A33F8
:1013B00018F0495D31FD4052419302D0A9F7EACFC0
:1013C000B4E0A6959795879577956795BA95C9F7EF
:1013D00000976105710508959B01AC010A2E0694E2
:1013E0005795479537952795BA95C9F7620F731F9B
:1013F000841F951FA01D0895002480FD060E660F12
:1014000011F08695D1F7802D08952F923F924F923B
:101410005F926F927F928F929F92AF92BF92CF9284
:10142000DF92EF92FF920F931F93CF93DF93CDB78D
:10143000DEB7CA1BDB0B0FB6F894DEBF0FBECDBF05
:1014400009942A88398848885F846E847D848C84D6
:101450009B84AA84B984C884DF80EE80FD800C81DF
:101460001B81AA81B981CE0FD11D0FB6F894DEBFC2
:0C1470000FBECDBFED010895F894FFCF32
:10147C0000000002000000008C06000000007365F4
:06148C00633A25640A002A
:00000001FF
