:100000001AC034C033C032C031C03CC02FC02EC073
:100010002DC02CC02BC02AC059C028C027C0041036
:1000200064002800680628002800680628000303EA
:100030000302280C018011241FBECFE5D2E0DEBFF1
:10004000CDBF10E0A0E6B0E0E0EAFAE002C0059023
:100050000D92A637B107D9F720E0A6E7B0E001C0BE
:100060001D92AA38B207E1F78AD018C5C9CFB7D018
:100070009093790080937800B5D090937700809327
:10008000760008951F920F920FB60F9211248F934E
:100090009F93EF93FF9382EC82BFE0917800F09101
:1000A0007900808181608083E0917600F091770013
:1000B00080819181019691838083FF91EF919F913F
:1000C0008F910F900FBE0F901F9018951F920F9257
:1000D0000FB60F9211248F93A89581B5806581BDCD
:1000E0008F910F900FBE0F901F901895F8948091EC
:1000F0007E0080FF22C080917E008E7F80937E00F4
:1001000080917C0090917D00937090937D0080930E
:100110007C0080917C0090917D00892B71F480910E
:100120007A0090917B00019690937B0080937A00F7
:1001300080917E00826080937E0078940895809103
:100140007E0081FF1BC080917E008D7F80937E00AA
:10015000B6D180E690E090938700809386008091EE
:100160007A0090917B009F938F938EE690E09F930F
:100170008F93BCD10F900F900F900F900895F8942B
:1001800084B7806284BF88B1806888B980B589608F
:1001900080BD84B7877F84BF81B5806581BD81B50F
:1001A000896281BD87B3826087BB83B7846083BF68
:1001B00089B7826089BF82EC82BF88B3856088BBC3
:1001C00087B3856087BB8FEF8FB98AE28DB980EFE7
:1001D0008EB94DDFF9D0789489DFB1DFFDCF8EE79E
:1001E00090E008958CE790E008950F931F93CF93CC
:1001F000DF93C82F8B01E0917F00F0918000808118
:100200008D7F8083DC2FD07F8D2F8C603ED18D2F12
:1002100088603BD1D0E0C295D295D07FDC27C07FEB
:10022000DC278C2F8C6031D18C2F88602ED1C801B7
:1002300050D1DF91CF911F910F910895CF93DF930C
:10024000C82FE0917F00F091800080818D7F8083B6
:10025000DC2FD07F8D2F8D6018D18D2F896015D127
:10026000D0E0C295D295D07FDC27C07FDC278C2FD1
:100270008D600BD18C2F896008D188E290E029D164
:10028000DF91CF910895FF920F931F93CF93DF9348
:1002900088E99AE31ED1E0917F00F091800080818F
:1002A0008D7F8083AED087E200D1F12C2EC0CF2D80
:1002B000D0E08E01025D1F4FF8018491807F8C6039
:1002C000E4D0F8018491807F8860DFD0F8018491C8
:1002D00090E082959295907F9827807F98278C60F8
:1002E000D4D0F801849190E082959295907F9827E0
:1002F000807F98278860C9D0FE01EE0FFF1FE25E65
:10030000FF4F85919491E5D0F394F7E0FF1508F045
:10031000CECF8DD0DF91CF911F910F91FF90089597
:10032000CF93C82FE0917F00F091800080818D7F76
:1003300080838091820080FD04C08091820081FFD3
:1003400018C0809182008E7F80938200809182000D
:100350008D7F8093820055D087E2A7D068E676E053
:1003600081E043DF68E270E080E83FDF60D0109218
:100370008100CA30B9F0CD30A9F043D087E295D0E2
:1003800080918100803130F068E270E080EC2DDFF8
:10039000109281008C2F52DF4AD0809181008F5FB4
:1003A00080938100CA3029F480918200816080931B
:1003B0008200CD3029F48091820082608093820097
:1003C00080E090E0CF91089577D090938000809363
:1003D0007F0059DF81E00895CF93CDB1C1600AC09D
:1003E00081E090E076D0CDB9B29BFECF81E090E085
:1003F00070D0CDB9769BF4CF81E090E06AD0CF91F8
:10040000089588B3846088BB81E090E062D088B3AF
:100410008E7F88BB81E090E05CD088B38B7F88BB07
:1004200088B3816088BB8EB180688EB9089580E8FA
:100430008FB988B38E7F88BB88B3846088BBB29B3A
:10044000FECF81E090E045D088B3816088BB81E039
:1004500090E03FD08EB1806A8EB9089588B38B7FCB
:1004600088BB8EB1817F80648EB9B6DF089587B373
:100470008E7F87BB8EB18E648EB91FB8ADDF87B318
:10048000816087BB8FB181700895909183009E7FBA
:10049000909383008FB9E2DFEADF811105C080917C
:1004A00083008160809383000895880F909183007A
:1004B00091FD8160EADF089583E890E00895B19BA3
:1004C00004C088B38D7F88BB089588B3826088BBE1
:1004D000089509C0000000000000000000000000B6
:1004E0000000000001970097A9F70895A0E0B0E090
:1004F000EBE7F2E0ACC2AE014B5F5F4FFA016191F6
:100500007191AF01809186009091870002D0E2E066
:10051000BAC2ABE0B0E0EEE8F2E089C26C017B0168
:100520008A01FC0117821682838181FFC0C1CE013E
:1005300001963C01F6019381F70193FD859193FFAC
:1005400081917F01882309F4AEC1853239F493FD8E
:10055000859193FF81917F01853221F4B60190E06E
:10056000C1D1E8CF912C212C312CFFE1F315E0F023
:100570008B3279F038F4803279F08332A9F4232D6C
:10058000206110C08D3259F0803371F4232D216029
:1005900009C0832D8260382EE32DE46022C0F32D44
:1005A000F86025C0322E27C037FC2DC020ED280F63
:1005B0002A3088F436FE06C0892D6AE02FD2922EAA
:1005C000980E19C0822D6AE029D2222E280E832D82
:1005D0008062382E10C08E3231F436FC64C1E32DB7
:1005E000E0643E2E08C08C3621F4F32DF0683F2ED7
:1005F00002C0883641F4F70193FD859193FF819104
:100600007F018111B2CF982F9F7D9554933028F4AC
:100610000C5F1F4F2FE329830DC0833631F08337E2
:1006200071F0833509F055C020C0F80180818983BD
:100630000E5F1F4F88248394912C530112C0280110
:10064000F2E04F0E511CF801A080B18036FE03C0CD
:10065000692D70E002C06FEF7FEFC50138D14C010A
:100660008201F32DFF773F2E15C0280122E0420EB4
:10067000511CF801A080B18036FE03C0692D70E0E6
:1006800002C06FEF7FEFC50117D14C01F32DF06869
:100690003F2E820133FC19C0822D90E08816990606
:1006A000A0F4B60180E290E01DD12A94F5CFF501C7
:1006B00037FC859137FE81915F01B60190E012D140
:1006C00021102A9421E0821A91088114910479F76B
:1006D000E1C0843611F0893639F5F80137FE07C0DC
:1006E00060817181828193810C5F1F4F08C060819E
:1006F0007181072E000C880B990B0E5F1F4FF32D95
:10070000FF763F2E97FF09C0909580957095619573
:100710007F4F8F4F9F4FF0683F2E2AE030E0A301BC
:100720001DD1882E861844C0853731F4232D2F7EA5
:10073000B22E2AE030E025C0932D997FB92E8F3656
:10074000C1F018F4883579F0AEC0803719F08837D9
:1007500021F0A9C0E92FE061BE2EB4FE0DC0FB2D33
:10076000F460BF2E09C034FE0AC0292F2660B22EC5
:1007700006C028E030E005C020E130E002C020E102
:1007800032E0F801B7FE07C06081718182819381F8
:100790000C5F1F4F06C06081718180E090E00E5FAA
:1007A0001F4FA301DBD0882E8618FB2DFF773F2E2D
:1007B00036FE0DC0232D2E7FA22E891458F434FE50
:1007C0000BC032FC09C0832D8E7EA82E05C0B82C2C
:1007D000A32C03C0B82C01C0B92CA4FE0FC0FE018D
:1007E000E80DF11D8081803321F49A2D997EA92E88
:1007F00009C0A2FE06C0B394B39404C08A2D8678C3
:1008000009F0B394A3FC10C0A0FE06C0B21480F49B
:10081000280C922C9B180DC0B21458F4B60180E23B
:1008200090E060D0B394F8CFB21418F42B1802C043
:10083000982C212CA4FE0FC0B60180E390E052D08A
:10084000A2FE16C0A1FC03C088E790E002C088E5C4
:1008500090E0B6010CC08A2D867851F0A1FE02C04E
:100860008BE201C080E2A7FC8DE2B60190E03AD0B5
:10087000891430F4B60180E390E034D09A94F8CF34
:100880008A94F301E80DF11D8081B60190E02AD031
:100890008110F6CF222009F44DCEB60180E290E01F
:1008A00021D02A94F7CFF6018681978102C08FEF7D
:1008B0009FEF2B96E2E1D7C0FC010590615070409C
:1008C0000110D8F7809590958E0F9F1F0895FC0119
:1008D0006150704001900110D8F7809590958E0F6F
:1008E0009F1F08950F931F93CF93DF93FB012381E5
:1008F00021FD03C08FEF9FEF2CC022FF16C0468161
:100900005781248135814217530744F4A081B18176
:100910009D012F5F3F4F318320838C932681378148
:100920002F5F3F4F3783268314C08B01EC01FB01FF
:100930000084F185E02D0995892BE1F6D801169602
:100940008D919C911797019617969C938E9316976D
:10095000CE01DF91CF911F910F910895FA01AA273F
:10096000283061F1203191F1E8946F936E7F6E5FD2
:100970007F4F8F4F9F4FAF4FB1E040D0B4E03ED09C
:10098000670F781F891F9A1FA11D680F791F8A1F83
:10099000911DA11D6A0F711D811D911DA11D22D0E8
:1009A00009F468943F91062E000C3019000C000CDD
:1009B0003019305D3193CEF6CF010895462F477040
:1009C000405D4193B3E00FD0C9F7F6CF462F4F708B
:1009D000405D4A3318F0495D31FD4052419302D0E9
:1009E000A9F7EACFB4E0A69597958795779567958F
:1009F000BA95C9F700976105710508959B01AC018F
:100A00000A2E06945795479537952795BA95C9F7B5
:100A1000620F731F841F951FA01D0895002480FD81
:100A2000060E660F11F08695D1F7802D08952F924E
:100A30003F924F925F926F927F928F929F92AF926E
:100A4000BF92CF92DF92EF92FF920F931F93CF93BB
:100A5000DF93CDB7DEB7CA1BDB0B0FB6F894DEBF52
:100A60000FBECDBF09942A88398848885F846E8478
:100A70007D848C849B84AA84B984C884DF80EE80C2
:100A8000FD800C811B81AA81B981CE0FD11D0FB6CB
:100A9000F894DEBF0FBECDBFED010895F894FFCFEF
:100AA00000000002000000009001000000007365DB
:060AB000633A25640A0010
:00000001FF
